:0200000490006A
:100000007807022481040090837B00905770009051
:10001000817B0090C1200090999400900000000026
:10002000000000000000000000000000C10300907C
:10003000AD210090000000001D040090397E00906A
:100040009B0400909B0400909B0400909B040090F4
:100050009B0400909B0400909B0400909B040090E4
:100060009B0400909B0400909B0400909B040090D4
:100070009B0400909B0400909B0400909B040090C4
:100080009B0400909B040090892000909B040090AA
:100090009B0400909B0400909B0400909B040090A4
:1000A0009B0400909B0400909B0400909B04009094
:1000B0009B0400909B0400909B0400909B04009084
:1000C0009B0400909B0400909B0400909B04009074
:1000D0009B04009069940090759400908194009026
:1000E0009B0400909B040090000000009B04009083
:1000F000F97F00909B0400909B0400909B0400906B
:100100009B0400909B0400909B0400909B04009033
:10011000C58700909B040090ED7F00909B040090A9
:100120009B0400909B0400909B0400909B04009013
:100130009B0400909B0400909B0400909B04009003
:1001400000000000000000000000000000000000AF
:100150009B0400909B0400909B0400908D94009061
:100160009B0400909B0400909B0400909B040090D3
:100170009B0400909B0400909B0400909B040090C3
:100180009B0400909B040090D18700909B040090FA
:100190009B0400909B0400909B0400909B040090A3
:1001A000097200909B040090A12100909B04009094
:1001B0009B0400909B0400909B0400909B04009083
:1001C0009B0400909B0400909B0400909B04009073
:1001D0009B0400909B0400909B0400909B04009063
:1001E0009B0400909B0400909B0400909B04009053
:1001F0009B0400909B0400909B0400909B04009043
:100200009B0400909B0400909B0400909B04009032
:100210009B0400909B040090E17F00909B04009061
:100220009B0400909B0400909B0400900000000041
:100230009B0400909B040090000000009B04009031
:100240009B0400909B0400909B0400909B040090F2
:100250009B0400909B0400909B0400909B040090E2
:100260009B0400909B0400909B0400909B040090D2
:100270009B0400909B0400909B04009000000000F1
:100280009B0400909B0400909B04009000000000E1
:10029000000000009B04009000F002F800F081F8DC
:1002A0000AA090E8000C82448344AAF10107DA45D1
:1002B00001D100F076F8AFF2090EBAE80F0013F0A2
:1002C000010F18BFFB1A43F00103184740972100A4
:1002D000609721000A444FF0000C10F8013B13F026
:1002E000070408BF10F8014B1D1108BF10F8015B8F
:1002F000641E05D010F8016B641E01F8016BF9D182
:1003000013F0080F1EBF10F8014BAD1C0C1B09D1D8
:100310006D1E58BF01F801CBFAD505E014F8016B4A
:1003200001F8016B6D1EF9D59142D6D370470000DC
:100330000023002400250026103A28BF78C1FBD8EE
:10034000520728BF30C148BF0B60704766291FF0B5
:10035000C685642900F07681632900F0B886732988
:1003600000F0BD86002070471FB51FF0B3FD9DE86B
:10037000030000F05FFF00F041FF040000200021B7
:100380001EF03EFC401C6060002000211EF022FC9C
:10039000E06000F09BFB1FBD10B5002000F0EEFEFA
:1003A00010BD01F0FFF81146FFF7DEFF1CF090FAD8
:1003B00001F045F903B4FFF7EFFF03BC1CF055FA59
:1003C0002C4B19680868B0E8F04F80F30988BFF338
:1003D0006F8F4FF0000080F311887047000000001D
:1003E00008480068006880F308884FF0000080F338
:1003F000148862B661B6BFF34F8FBFF36F8F00DF13
:1004000000BF00BF08ED00E0DFF80C00016841F418
:1004100070010160704700BF88ED00E0EFF30980D4
:10042000BFF36F8F134B1A681EF0100F08BF20ED3B
:10043000108A20E9F04F106009B44FF0500080F3AB
:100440001188BFF34F8FBFF36F8F1DF091FC4FF0FA
:10045000000080F3118809BC19680868B0E8F04F03
:100460001EF0100F08BFB0EC108A80F30988BFF3AC
:100470006F8F704754000024EFF305807047000031
:100480000948804709480047FEE7FEE7FEE7FEE728
:10049000FEE7FEE7FEE7FEE7FEE7FEE70448054964
:1004A000054A064B70470000FD7E009099020090BF
:1004B000788701247807022478C7012478C70124AB
:1004C000704753EA020C00F069802DE9F04B4FF0C1
:1004D0000006002B1FBFB3FA83F503FA05F424FAD4
:1004E00005F65E4012BF1643B2FA82F502FA05F431
:1004F000C5F120051EBF22FA05FC44EA0C04203594
:1005000056EA044C4FEA144418BF641C4FF000082C
:100510004FF00009904271EB030C39D3002919BF49
:10052000B1FA81F701FA07F6B0FA80F700FA07F698
:10053000C7F120071EBF20FA07FC46EA0C06203749
:10054000B6FBF4FCA7EB0507103F07F01F0BCBF140
:1005500020060CFA0BFB2CFA06F644BFB346002625
:10056000202FA4BF5E464FF0000B5BEA060C08BFCD
:100570004FF0010B19EB0B09ABFB027C48EB0608B3
:10058000C01B06FB02CC0BFB03CC71EB0C01C1E7DB
:100590000B46024641464846BDE8F08B13B54FF086
:1005A00000004FF00001AFF30080BDE81C40704731
:1005B0000FB4044910B503AA029800F095FD10BCD1
:1005C0005DF814FB380000240FB41CB5074B06AAD5
:1005D0007B4469460090059800F057FD002069466D
:1005E00000F066FD1CBC5DF814FB0000DD0A000095
:1005F00070B50C460546012A05D02878800600D53E
:10060000EA69002302E0012305E05B1C934202D269
:10061000E05C0028F9D1A869E618C01AA861286A28
:10062000184428622846AFF3008004E0D5E9012190
:1006300014F8010B9047B442F8D32846AFF300807A
:1006400070BD00002DE9F0410646002410687529B0
:10065000314616A510D0AFF30080002802DA4042E0
:1006600013A507E031688A0701D512A502E0490702
:1006700004D511A5012401E0AFF3008000210A2276
:1006800006F1240709E0B0FBF2FCB0FBF2F302FB39
:100690001C00303078541846491C0028F3D12346FA
:1006A0002A463046BDE8F04100F082BA0000000062
:1006B0002D0000002B000000200000002DE9F05F5D
:1006C000894604464FF0000ADFF874B1FB44C0F8D5
:1006D00020A02046E1688847002874D0252806D04D
:1006E000D4E901219047206A401C2062F1E70026EE
:1006F0005F462046E16888472028054607DB312D04
:1007000005D2781910F8200C08B10643F1E7B007BC
:1007100001D526F00406C4F81CA00027C4F818A0D0
:100720002A2D09D028461CF099F838B304EB870825
:10073000303DC8F8185019E059F8041B204604EB66
:1007400087029161E1688847012F054618D1E06969
:10075000002820DA26F020061DE0D8F8180000EB6B
:10076000800005EB40003038C8F818002046E168EA
:10077000884705461CF072F80028EED1012F0AD0F8
:100780002E2D08D12046E16888477F1C0546022FA0
:1007900046F02006C4DBA069002803DA404246F098
:1007A0000106A061F00701D026F010066C2D0BD0D9
:1007B000682D09D04C2D39D06A2D35D0742D35D007
:1007C0007A2D33D016E038E0E1682F46204688477E
:1007D000B842054609D16C2F26D04FF48060E168FD
:1007E000064320468847054604E06C2F1AD04FF494
:1007F000807006430DB3A5F14100192802D82035B9
:1008000046F400664A462946204626604E46FFF7D3
:100810009DFD80B101280BD0F61D26F0070000F1E8
:10082000080956E74020E4E78020D8E70020D6E713
:1008300006F104094DE7284652E7206ABDE8F09F1B
:1008400024FB010070B5064600F058F9046805461F
:1008500030460A22002100F059FC2C6070BD10B512
:10086000002000F0ACFCFFF797FDBDE81040012030
:100870001BF0FBBF2DE9F041074615460E46102040
:1008800000F040F904000AD06760C4E9026500F096
:1008900031F90168216004600020BDE8F081012089
:1008A000FBE710B5431C02E010F8011B71B1810792
:1008B000FAD14FF0013202C88C1A8C4314EAC211EB
:1008C000F9D0C01A0A0603D0C01E10BDC01A10BD50
:1008D0000A0401D0801E10BD0902FCD0401E10BDCC
:1008E000032A40F2308010F0030C00F0158011F85C
:1008F000013BBCF1020F624498BF11F801CB00F834
:10090000013B38BF11F8013BA2F1040298BF00F887
:1009100001CB38BF00F8013B11F0030300F0258044
:10092000083AC0F0088051F8043B083A51F804CB6B
:10093000A0E80810F5E7121D5CBF51F8043B40F831
:10094000043BAFF30080D20724BF11F8013B11F83C
:1009500001CB48BF11F8012B24BF00F8013B00F880
:1009600001CB48BF00F8012B704710B5203AC0F00A
:100970000B80B1E81850203AA0E81850B1E81850A0
:10098000A0E81850BFF4F5AF5FEA027C24BFB1E8DD
:100990001850A0E8185044BF18C918C0BDE810404E
:1009A0005FEA827C24BF51F8043B40F8043B08BF57
:1009B0007047D20728BF31F8023B48BF11F8012B1E
:1009C00028BF20F8023B48BF00F8012B704702F017
:1009D000FF0343EA032242EA024200F002B84FF06A
:1009E00000020429C0F0128010F0030C00F01B80FC
:1009F000CCF1040CBCF1020F18BF00F8012BA8BF0A
:100A000020F8022BA1EB0C0100F00DB85FEAC17CCD
:100A100024BF00F8012B00F8012B48BF00F8012B80
:100A200070474FF0000200B51346944696462039B1
:100A300022BFA0E80C50A0E80C50B1F12001BFF497
:100A4000F7AF090728BFA0E80C5048BF0CC05DF8FD
:100A500004EB890028BF40F8042B08BF704748BF4B
:100A600020F8022B11F0804F18BF00F8012B7047BF
:100A700010B5044610F0030F08BF11F0030F40F04B
:100A800015804FF0013E121FC0F20E8051F8043B5A
:100A9000A3EB0E0C2CEA030C1CEACE1C08BF40F89A
:100AA000043BF0D0A1F1040102F10402521E08DB64
:100AB00011F8013B002B00F8013BF7D11146FFF77D
:100AC0008EFF204610BD70477047704770B5064CCA
:100AD0007C44064D7D4403E0206820448047241D6B
:100AE000AC42F9D170BD0000EC952100F8952100D1
:100AF000704700000048704728FB002400487047FA
:100B0000F0FA002470B5064600F074FB056806F1A3
:100B10000B0020F00704B4429CBF002070BD2B46A0
:100B20006A68BAB11068A04210D304F10801884283
:100B30003CBF5068586007D3516810194160116874
:100B4000091B016058601460101D70BD1346526887
:100B5000002AE7D12146284600F058FB0028DED1C4
:100B600070BD70B50446051F00F044FB0068002C02
:100B700014BF446870BD002C18BFAC423CBF204677
:100B80006468F8D301680A18AA4218BF456003D107
:100B90002A6805461144016028684119A1421CBF1A
:100BA0006C6070BD6168696021680844286070BD30
:100BB0002DE9F0470D4699469246044600F1240877
:100BC0000168880604D5E06921F01001216000E089
:100BD0000120A84201DD471B00E00027A1697A1926
:100BE00002EB0900081AA0612078C00602D4204652
:100BF000AFF30080002608E0D4E901211AF80600CE
:100C00009047206A401C761C20624E45F4DB207819
:100C1000C0060AD52046AFF3008006E0D4E90121E2
:100C200030209047206A401C2062381EA7F101073F
:100C3000F4DC07E0D4E9012118F805009047206AA8
:100C4000401C2062281EA5F10105F3DC2046AFF30D
:100C500000802078000602D50220BDE8F087012040
:100C6000FBE770472DE9FF4F0C461E464FF0FF375C
:100C70008BB0D2E90001DDF860800A908A46C1F3AA
:100C80000A5505B93D46002108464FF00000BAF16B
:100C9000000F00F4400005DA00EB80004FF4400143
:100CA00001EA50004FEA9059B9F1010F00DDB94651
:100CB0000A9850EA4A000ED044F61050A5F2FF35CB
:100CC00045432F14B8F1000F1ED07542291E1EDDBA
:100CD000C9F100021CE0B8F1010F4FF0000001D093
:100CE000302103E0F24305E02154401CB042FBDB1D
:100CF00030460022002121540B99C1F80880C1E937
:100D000000200FB0BDE8F08FBD1B6D1CDEE74A462A
:100D100000DA694206A800F099FB06AB93E80700E9
:100D200003AB83E8070050460A9900F00DFD8DE8FB
:100D30000700A0F500501F3800900398002D0ADD31
:100D400042F21F014A460844002303A90390684663
:100D500000F076FF09E0A0F500504A461F38002356
:100D600003A90390684600F080FF8DE807000004A7
:100D7000000C03D04FF0FF30410800E01046B8F1FE
:100D8000000F03D00022009215461EE0751E05D408
:100D900000F086FA303262556D1EF9D5B346012255
:100DA000084302D000227F1C04E02078302801D1C3
:100DB00000227F1E002A099784D01DE0112D07DA3A
:100DC00000F06EFA303262556D1C50EA0102F5D126
:100DD000084302D00098C8B10EE00021681E05E06B
:100DE000235C625C63542254401E491C8142F7DB41
:100DF000AB46A81B401E0990002004F80B000B987E
:100E0000099AC0F80880C0E9002B7AE711264FF054
:100E1000000857E72DE9F04F88460446D21D22F01E
:100E2000070191B0D1E90001CDE90A011BF05DFC99
:100E300002460B98C00F01D02D2007E020688107E3
:100E400001D52B2002E0202101EAC000032A0990ED
:100E500001D0072A05DB03464146204600F066FA2A
:100E60000BE12078800601D5E06900E00620B8F1AA
:100E7000650F814606D0B8F1660F18D0B8F1670F3C
:100E800070D131E00020B9F1110F009001DB112386
:100E900001E009F101030AAA01A90CA8FFF7E2FE8B
:100EA000DDE90C70002609F10105834647E00120C9
:100EB0004B4600904FF000470AAA01A90CA8FFF783
:100EC000D1FEDDE90DB00C995D46002610B909F19F
:100ED00001000D18B9EB050003D4C0F1FF3609F18C
:100EE0000105A5EB09002BE0B9F1010F01DA4FF084
:100EF00001090020B9F1110F0090484601DD1123CE
:100F000000E003460AAA01A90CA8FFF7ABFEDDE941
:100F10000C704D4600268346207800070AD4AB4566
:100F200000DA5D4601A8012D04DD411911F8011C0C
:100F3000302907D04F4502DA17F1040F04DA0120F7
:100F400082460FE06D1EEEE7002F02DCED1B3E44F3
:100F500003E0781CA84200DD7D1CB81B00F1010AEB
:100F60004FF000472078000703D4AA4501DB4FF07B
:100F7000FF3A0021B7F1004F0DF143088DF84310FF
:100F800024D002202B23002F01DA7F422D230A21B7
:100F9000021EA0F1010000DC5FB197FBF1FC97FBA2
:100FA000F1F201FB1C7C17460CF1300C08F801CD66
:100FB000EEE7A8F1010003702188090501D545215C
:100FC00000E06521A0F1010800F8011C09980FA9B3
:100FD000A1EB0807FF1D00B10120411901EBEA70E8
:100FE000A1693844081A401EA0612078C00602D4C6
:100FF0002046AFF30080099828B1D4E90121904739
:10100000206A401C20622078C00622D52046AFF31B
:1010100000801EE0002E04DBB34502DD01A8805DE8
:1010200000E03020D4E901219047206A401C206272
:10103000761CAAF101005FEA000A0AD100F0DEF88E
:10104000C0680168405CD4E901219047206A401CD7
:101050002062281EA5F10105DCDC07E0D4E90121AE
:1010600018F8010B9047206A401C2062381EA7F137
:101070000107F3DC2046AFF30080032011B041E606
:1010800001694A1C02610878704700B58FB0CDE94C
:1010900001310021059105497944CDE9031011463C
:1010A0006846FFF70BFB0FB000BD0000E5FFFFFF38
:1010B0000A6802F8010B0A60704710B5436913B162
:1010C000AFF3008001E0FFF793FA012010BD127822
:1010D00000F124010A7000224A700122EDE7116834
:1010E0004FF0FF32E9E70000074B70B50D467B4437
:1010F000FFF7CBFF0446284600F01AFA10B14FF074
:10110000FF3070BD204670BDC7B701002DE9F04724
:1011100091460F4680460446002614F8015B2DB127
:1011200000F060F80068405DC007F6D12B2D02D0BA
:101130002D2D18D0641E4A463946204600F036F957
:1011400027B13968A14201D1C7F800804FF00204ED
:1011500071050BD54042002803DDFFF7CFFC04608A
:10116000A007BDE8F08746F48066E4E70028F8DAD7
:10117000FFF7C4FC04606FF00040F2E72DE9F04196
:101180000646FFF7B7FC8046454613E016B1E06817
:10119000B0420ED120682860D4E90101D8F800706F
:1011A00088472046FFF7DDFCD8F80000B842EBD1B5
:1011B00000E025462C68002CE8D1BDE8F08110B590
:1011C00000F0C0F9BDE8104000F0B6B910B500F06D
:1011D000D1F9BDE8104000F0AFB9000000487047F9
:1011E000F0FA002410B500F009F8001D10BD00BF92
:1011F00011DA010000487047F8FA002400487047EF
:1012000010FB0024704770477047704738B504469C
:101210000A4600206946AFF30080002808BF38BDA9
:1012200002460099204600F0E2F9012038BD012075
:1012300000F027BAF8B5AFF30080054600200C4651
:10124000102000BF0646A819A0420DD932466946B3
:101250000020AFF30080070008BF00F012FA0098EA
:10126000A04218BF0546C419FFF7C4FF0560074632
:10127000F01D20F007004619284600F00AF8B44295
:1012800008BFF8BDA21B31463868BDE8F84000F041
:10129000AEB900210160C0E901107047102070470D
:1012A00030B5B0F10A024FEA900E71F100034EEA38
:1012B000817EB0EB0E0061EB91014FEA101E4EEA09
:1012C000017E10EB0E0041EB11114FEA102E4EEA99
:1012D000016E10EB0E0041EB11214FEA104E4EEA69
:1012E000014E10EB0E0041EB1141401841F100019D
:1012F0004FEAD00040EA41704FEAD10110EB80057F
:101300004FEA810444EA907444EB01046D1944EB04
:101310000404521BA3414FF0000348BF0A3200D51A
:1013200030BD401C41F1000130BD00002DE9F0410D
:101330001F46044603260168072A01F4006004DB07
:1013400008B116A505E016A503E008B115A500E053
:1013500015A521F010002060A069C01EA0610FB18A
:10136000401EA0612046AFF300804FB1D4E90121B7
:1013700038469047206A401C2062C01C206206E06C
:10138000206AFAE7D4E9012115F8010B9047761E8F
:10139000F8D22046AFF30080BDE8F0814E414E0008
:1013A0006E616E00494E4600696E66002DE9F05F81
:1013B000824615468B4600270AF10104B94600789B
:1013C000302801D09DB113E014F8010B01277828D3
:1013D00003D0582801D045B10AE00DB1102D07D136
:1013E000002714F8010B102502E0082500E00A256B
:1013F0000026B0460EE005FB080005FB06F10127BC
:101400001FFA80F801EB1046B6F5803F00D3B946CD
:1014100014F8010B294600F004F90028EBDABBF1BF
:10142000000F05D00FB1641E00E05446CBF8004019
:10143000B9F1000F06D0FFF761FB02210160C81E61
:10144000BDE8F09F48EA0640FAE700002DE9F047C2
:10145000814616468AB0354878440DC88DE80D009F
:1014600032487844801C03AC0DC884E80D0041F676
:101470009B300844372190FBF1F290FBF1F5A5F188
:10148000800501FB12041B3C02D56442012000E0F0
:101490000020DFF898A080460027FA44AAF1BE0A8F
:1014A0000EE0E0070AD03246684607EB4701012309
:1014B0000AEB810100F0D9FB8DE8070064107F1C66
:1014C000002CEED1194F7F44AE3F19E0E80715D04C
:1014D00007EB04100DF1180A90E80E008AE80E00E0
:1014E000C068F04201D1981908903246012306A93C
:1014F00003A800F0BAFB03AB83E807006D10641C7F
:10150000002DE3D14FF0010332466946B8F1000FD8
:1015100003A802D000F094FB01E000F0A6FBC9E9AB
:101520000001C9F808200AB0BDE8F08728EE0100E4
:10153000007B00F080007047002801D01BF095B9B7
:101540007047000010B5002102A000F081F80120D2
:1015500010BD0000534947414252543A2041626E47
:101560006F726D616C207465726D696E6174696F04
:101570006E00000010B5002102A000F069F8012003
:1015800010BD00005349475056464E3A20507572E0
:1015900065207669727475616C20666E2063616C7B
:1015A0006C6564007546FFF719FEAE460500694696
:1015B000534620F00700854618B020B5FEF76EFFB1
:1015C000BDE820404FF000064FF000074FF0000844
:1015D0004FF0000B21F00701AC46ACE8C009ACE8C5
:1015E000C009ACE8C009ACE8C0098D4670470346A5
:1015F00040688C46002818BF88423CBF03464068BC
:10160000F8D318681844884207D00CF1030020F082
:101610000700001D411A521A0146081D0A60FFF713
:10162000A0BA3A2800D2303820F02002412A01D353
:10163000A2F13700884201D34FF0FF30704710B558
:101640000446AFF300802046BDE81040FEF7B2BE6E
:1016500070B505460C460A2000E06D1C1BF006F92B
:1016600035B128780028F8D102E0641C1BF0FEF8A0
:1016700014B120780028F8D1BDE870400A201BF092
:10168000F5B810B500F038F8BDE81040FFF754BFCA
:101690004FF0013C50F8042B51F8043B9A4215D10D
:1016A000A2EB0C03934313EACC130BD150F8042B99
:1016B00051F8043B9A4209D1A2EB0C03934313EA7D
:1016C000CC13E7D04FF00000704700BFD01A01BA2A
:1016D000B1FA81F101F0180122FA01F0CB40C1F119
:1016E0002001DBB2C0B2C01A2CFA01F3D11A914327
:1016F00011EAC311E6D1704710B5012805D00021C9
:1017000003A0FFF7A5FF012010BD09A1F8E7000025
:1017100053494752544D454D3A204F7574206F66DA
:101720002068656170206D656D6F72790000000042
:101730003A2048656170206D656D6F727920636F26
:1017400072727570746564005FEA400C08BF91F0B6
:10175000000F4FEA8C234FEAC12243EA51514FEA6E
:101760001C5018BF00F5F0404FEA300018BF41F0A0
:1017700000415FEA6C5C00F02980BCF1FF3F08BFCC
:1017800040F080407047130C06BF12044FF0100C5D
:101790004FF0000C130E04BF12020CF1080C130FD3
:1017A00004BF12010CF1040C930F04BF92000CF162
:1017B000020CD30F04BF52000CF1010C11464FF084
:1017C0000002A0F11F00A0EB0C00704711F0004FC9
:1017D00008BF704731F000413FF4D5AF0B0C06BF96
:1017E00009044FF0100C4FF0000C0B0E04BF09025F
:1017F0000CF1080C0B0F04BF09010CF1040C8B0F4A
:1018000004BF89000CF1020CCB0F04BF49000CF19E
:10181000010CCCF12003A0EB0C0022FA03F302FA36
:101820000CF241EA030100F10100704720F07F4C07
:1018300080EA030023F07F47ACEB070303F57C53FA
:1018400000F0004003F1FF032DE980494FEA154BFA
:1018500009B44FEA144325EA0B4E24EA03480FF279
:10186000042606EB132749083E785FEA320203FBA1
:101870000667C7F5000707FB06F64FEA54374FEA3D
:10188000D64606F1020607FB066CCCF1005C4FEA77
:101890001C472CEA074C07FB06F40CFB06F504EB8F
:1018A00015464FEA961634BF00204FF000404FEA2D
:1018B000D13706FB07FC4FEA1C4C0CFB0BF7D21B85
:1018C00003FB0CF761EB07010CFB0EF7B0EB0740D5
:1018D00072EB17420CFB08F734BFA2EB0742B2EBE6
:1018E000074261EB17414FEA0C444FEA910706FBB0
:1018F00007FC4FEA1C4C0CFB0BF7B0EBC74072EB3C
:10190000573203FB0CF734BFA2EBC742B2EBC7421E
:1019100061EB57310CFB0EF7B0EBC70072EB57725F
:101920000CFB08F734BFA2EBC702B2EBC70261EBB6
:101930005771039F4FEA816141EA921104EBCC0495
:101940004FEAD1374FEA826206FB07FC42EA901267
:101950004FEA80604FEA1C4C0CFB0BF7D21B03FBD9
:101960000CF761EB07010CFB0EF7B0EB074072EBD5
:1019700017420CFB08F734BFA2EB0742B2EB074259
:1019800061EB17414FEA8C554FEA910704EB9C2419
:1019900006FB07FC4FEA1C4C0CFB0BF7B0EBC740F7
:1019A00072EB573203FB0CF734BFA2EBC742B2EB2A
:1019B000C74261EB57310CFB0EF7B0EBC70072EB7F
:1019C00057720CFB08F734BFA2EBC702B2EBC70299
:1019D00061EB577115EB4C254FEA816141EA921199
:1019E0004FEA82624FEAD13742EA901206FB07FCC7
:1019F00044F100044FEA80604FEA1C4C0CFB0BF7EB
:101A0000D21B03FB0CF761EB07010CFB0EF7B0EBED
:101A1000074072EB17420CFB08F734BFA2EB0742FA
:101A2000B2EB074261EB174115EB1C154FEA813110
:101A300041EA92414FEA823242EA90424FEA8030D4
:101A40004FEA0C7644F1000448EA03434EEA0B489F
:101A50004FF0000EB2EB080C71EB030724BF624697
:101A600039464EEB0E0E4FF0000B00185241494123
:101A70004BEB0B0BB2EB080C71EB03077BF1000B8C
:101A800024BF624639464EEB0E0E4FF0000B001895
:101A9000524149414BEB0B0BB2EB080C71EB0307C6
:101AA0007BF1000B24BF624639464EEB0E0E51EA25
:101AB000020718BF46F0010616EB0E7655F100023C
:101AC00054F1000103D5BDE88901BDE80088BDE8F7
:101AD0008901BDE80048B619524141EB0101A3F16B
:101AE0000103704780807F7E7D7C7B7A7978777672
:101AF00076757473727171706F6E6E6D6C6C6B6AEB
:101B00006A69686867666665646463636261616088
:101B1000605F5F5E5E5D5D5C5C5B5B5A5A59595805
:101B2000585757565655555554545353525252516F
:101B3000515050504F4F4F4E4E4D4D4D4C4C4C4BC5
:101B40004B4B4A4A4A49494948484847474747460C
:101B50004646454545444444444343434342424248
:101B600042414141002B9C4630D477002BD01CB51C
:101B70004FEA370703B44FF010004FF01001BAF1ED
:101B8000000F06D0BCF1000FDCBF40F0080040F0B1
:101B900008014FF000000FBCBDE810400BF1010B35
:101BA000BBF1010F08BF5FEA170722BF12F1010264
:101BB00011F101014FF0004143F1000300F000403A
:101BC00043EA00007047F9D35708D0E746EA0646D3
:101BD00013F1400F4FEA16461FDD13F1200FDFBF50
:101BE00016430A46002120335B42BED0C3F12007D2
:101BF00046EA064602FA07F74FEA164646EA07069D
:101C0000C3F1200722FA03F201FA07F721FA03F1E0
:101C10004FF0000342EA0702A7E746EA020646EA57
:101C200006464FEA164646EA0106BCBF46EA0646A5
:101C3000360C4FF000034FF000024FF0000194E724
:101C40002DE9804C9A46934670B491E8380007C855
:101C500031EA400C48BF34EA430C03D5FFF7E6FDF8
:101C6000FFF780FFF0BCBDE8008C2DE9804C9A4660
:101C7000934670B491E8380007C810F0804F08BF51
:101C800013F0804F03D100F005F8FFF76BFFF0BCB5
:101C9000BDE8008C20F07F4780EA030023F07F4CF2
:101CA00007EB0C03A3F57C5300F00040A3F1FE0307
:101CB00092F0000F00F0B38095F0000F00F07780F5
:101CC0002DE901494FEA11404FEA144621EA004844
:101CD00000FB06FC24EA064708FB06F607FB08F8AB
:101CE00000FB07F718EB06484CEB164C4FEA124B7B
:101CF00018EB07484FEA15464CEB174022EA0B4E0B
:101D00000BFB06FC25EA06470EFB06F607FB0EFE5C
:101D10000BFB07F71EEB064E4CEB164C4FF0000684
:101D20001EEB074E4CEB174B18EB0B0840F1000075
:101D300018EB0E0B58EB000840F100008F1A4FF023
:101D400000013CBFC943661B14BFB5EB040C002166
:101D50003CBFC943F61B4FEA17444EEA8E0E27EAF2
:101D600004454FEA1C4704FB07622CEA074C05FBBD
:101D700007F70CFB05F604FB0CFC16EB074642EBE1
:101D8000174216EB0C4642EB1C421BEB060658EBC7
:101D90000202414146EA9E0601D5BDE80189B61915
:101DA000524141EB0101A3F10103BDE801894FEA72
:101DB00014454FEA114724EA054621EA074C05FB82
:101DC00007F406FB07F70CFB06F105FB0CFC11EB17
:101DD000074144EB17444FEA124711EB0C4144EB27
:101DE0001C4422EA074C05FB07F206FB07F70CFB35
:101DF00006F605FB0CFC16EB074642EB174216EB0A
:101E00000C4642EB1C456A1854F1000148BF70476C
:101E1000B619524141EB0101A3F10103704795F05E
:101E2000000F37D04FEA11424FEA144721EA024629
:101E300024EA074C02FB07F106FB07F70CFB06F44C
:101E400002FB0CFC14EB074441EB17414FEA15472A
:101E500014EB0C4441EB1C4125EA074C02FB07F54F
:101E600006FB07F70CFB06F602FB0CFC16EB07461D
:101E700045EB174516EB0C4645EB1C42121951F188
:101E8000000148BF7047B619524141EB0101A3F16F
:101E9000010370474FEA14454FEA114724EA05460B
:101EA00021EA074C05FB07F106FB07F70CFB06F2DE
:101EB0004FF0000605FB0CFC12EB074241EB17410B
:101EC00012EB0C4251EB1C4148BF7047921841EB9A
:101ED0000101A3F10103704770B53A490546006856
:101EE000884202D0384A904202D1D1F8080302E079
:101EF0003648D0F8080310F4403F11D003F0A0FC9E
:101F000004466868B0F5803F06D0B0F5003F03D0C6
:101F1000B0F5403F27D101E0000C18E0A40822E012
:101F200000214FF4002002F0F5FC044668688103AC
:101F3000890B18D181140C2915D2DFE801F01406A1
:101F400006060606060B0D0F1113800C4000B4FBAD
:101F5000F0F408E0240906E0640904E0A40902E0C2
:101F6000E40900E0240A01F083FF41F20301884202
:101F700008D8174884422868816813D821F48071F2
:101F8000816070BD13496008884204D82868816860
:101F900021F44071F4E71049884206D82868816826
:101FA00021F4407141F48071EAE70C4988422868C5
:101FB000816804D821F4407141F40071E0E741F4F4
:101FC0004071DDE70020024000210240006002581D
:101FD000002D3101105E5F0020BCBE0040787D0105
:101FE00070B504460068816811F0010F40D1816826
:101FF000204A11422DD18168D5432940491C816076
:1020000001F03CFF1C49064620681C4B884201D069
:10201000984201D11A4A00E01A4A9268984202F0A6
:102020001F0200D0014681421DD0E2B120E081684C
:1020300011F0010F03D181682940491C816001F032
:102040001DFF801B02280ED920680068C043C0070E
:1020500009D0606D40F010006065A06D40F0010097
:10206000A065012070BD20680168C943C907DED1A1
:10207000002070BD3F00008000200240002102408F
:102080000023024000630258014800F019BD00001F
:10209000A004002410B5074907A0FEF789FA0548F7
:1020A000C821FEF79CFCBDE810400249C822034845
:1020B00004F02DBB5659002425730A002009002482
:1020C000FEE700002E4B002270B51C6824F00104CE
:1020D0001C602C4C2368C3F30B150123A5F5406647
:1020E000243E0ED02568C5F30B15A5F54066273EA6
:1020F00007D02468C4F30B14A4F55065223D2BD0FF
:1021000017E0214A1268A2B9204A14684FF08A45A4
:10211000B5EB045F18D01468C4F30B04A4F5806514
:10212000833D11D01268C2F30B02A2F58064853C96
:102130000AD0174A93609368002BFCD11060106896
:1021400088421BD0002070BD124A13601368002B18
:10215000FCD1104A083AF1E70F4C2468C4F30B0491
:10216000A4F58065863D01D0104670BD0B4A136012
:102170001368002BFCD1094A083ADFE7012070BD43
:10218000002000E000ED00E0002004E00010005C12
:1021900000300240084C0258F08F0046084C0246BE
:1021A000014801F0DBB8000028050024704772B632
:1021B000FEE7F0B5D1E90843CD690A68C2B102680B
:1021C000254322F4F84213431D430560D1E901255C
:1021D000D1E903364C692A434568334389691A4378
:1021E000EB0B2243DB030A431A4342600020F0BD9D
:1021F000D1E9012ED1E9036CD1E9057142EA0E0261
:1022000046EA0C0632433A430A4301682A43224312
:102210001A436FF30E010A430260E7E7426943F68F
:10222000FE739A4342EA410141610020704770B554
:1022300091E81C00C9686FF01F0506691A4305EB99
:10224000441444EA41210A4306EA45431A43026121
:10225000002070BD2DE9F04F8B8A6FF00F05264CE2
:102260004FF07F4BD1F80C9004EB03536FF0FF0459
:102270004FEA042A1AB386684FEA09321F4FA2F5C3
:1022800080521A433E4032438260D1E900278E6873
:10229000521E05EB07150F8A2A43C56804EB062476
:1022A0000E7E0AEB074322431A430BEB06610A43F7
:1022B00005F070431A43C2600020BDE8F08F91E83A
:1022C00004110F4E521E0F8A05EB08152A4304EB2A
:1022D0000C2C06EB09350E7E42EA0C022A43856877
:1022E0000AEB074422431A430BEB06610A4305F04D
:1022F00070431A438260DFE70000F0FFFF0F0FFF1B
:1023000000F0FFFF30B5494A87B04B4848A1FEF7BF
:102310005BF9494C2078242878D1607847287DD112
:10232000A0784E287AD1E078472877D120794728BD
:1023300074D16079412871D1A0792C286ED1E079CF
:102340003E4D2C2824D08DF81000207A8DF81100F5
:1023500004A8FEF777FA08302870607A8DF810002C
:10236000A07A8DF8110004A8FEF76CFA6870E07A84
:102370008DF81000207B8DF8110004A8FEF762FA9A
:10238000C3B2AB706A782EA02978FEF711F90BE082
:10239000207A2C2805D1607A2C2802D1A07A2C280A
:1023A0003CD02CA0FEF704F9A07C2C2833D01F4988
:1023B0000A2204A81231FEF75BFB04A8FEF742FADA
:1023C00000EE100AB8EEC00B1AF052FA17490A22B2
:1023D00085ED020B1F3104A8FEF74AFB04A8FEF7A7
:1023E00031FA00EE100AB8EEC00B1AF041FA0F48AD
:1023F00085ED040B53EC102B417F2976C07F687666
:1024000095ED021B8DED021B009000E006E015A08B
:10241000FEF7CEF802E019A0FEF7CAF803484FF421
:102420001671FEF7DCFA07B030BD0000A654002498
:1024300025730D0A000000001E5A0024785C002459
:10244000CAB13A25642CB7D63A25642CC3EB3A2599
:10245000640D0A00D0A1CAB1BDD3CAD5B4EDCEF384
:102460000D0A00002563BEADB6C83A25662C25636B
:10247000CEB3B6C83A25660D0A000000BEADCEB395
:10248000B6C8BDD3CAD5B4EDCEF30D0A0000000026
:102490002DE9F041012417460D46064606F08EF858
:1024A000304600F02FF8C0B906F088F8BB2006F0DF
:1024B000FDF8012811D16E1E002409E0B44201D1BB
:1024C000002000E0012006F049F83855641CE4B211
:1024D000AC42F3D306F096F8002406F093F82046B9
:1024E000BDE8F08170B50D46044606F067F8204659
:1024F00000F008F810B9284606F0D8F806F082F87F
:10250000002070BD10B5044606F058F8BA2006F059
:10251000CDF8012807D1200A06F0C8F8012802D119
:10252000E0B206F0C3F8002010BD70477047704756
:10253000704770472DE9F0470F4690F850109AB059
:10254000044601294FF0000915D00026DFF8F88075
:10255000012084F8500015961696216841450ED149
:102560003A4D0095284604F043FE8246206804F068
:102570003FFE60B10EE002201AB0BDE8F087606D4A
:1025800084F8506040F0200060650120F4E7BAF163
:10259000000F09D0616D4FF0010941F02000606526
:1025A000484684F85060E7E720684146884201D0F9
:1025B000A84201D1264800E0264840F61F72D7F80D
:1025C00000C0254BBCF1000F23D0D0F808C0D7F8CD
:1025D00004802CF4404C4CEA080CC0F808C0D4F835
:1025E00000C08C4501D0AC4507D18968AB6801F0CB
:1025F000010103F00103194302E0996801F00101B0
:102600000029CDD1BD6839688368294393431943B4
:1026100017E0876827F44047876027688F4201D01A
:10262000AF4207D18968AB6801F0010103F00103F3
:10263000194302E0996801F001010029B0D18168D5
:1026400091438160ACE7000000200240002102407D
:102650000023024000630258006002582DE9F84F41
:102660000446EB4E0020DFF8ACB30090002794F84E
:1026700050000D46DFF8A0A3012808D04FF0010953
:1026800084F85090206804F0AFFD18B171E1022089
:10269000BDE8F88F286800280EDB21680303CA69AB
:1026A00028D090FAA0F0B0FA80F000BF00F01F032D
:1026B00009FA03F00243CA61D5E900124FF00C0C8D
:1026C00020681F23C1F384610CEA921C02F01F02F0
:1026D000604493409140026B9A430A43026320682E
:1026E00004F082FD8046206804F07AFD58EA00007C
:1026F00003D08DE0C0F38460D8E72A680423206803
:102700004FF0070CA96803EAD25318444369C2F397
:1027100004520CFA02FC914023EA0C030B43436180
:10272000BE490968B9EB117F06D121686869C9689B
:10273000C1F38201490008E02068C168C906C16888
:102740006869F5D501F01001490888402969042914
:102750002ED023682A6803EB810102F0F8420B6E49
:10276000024303F0004010430866697E226828692E
:10277000012917D05FF0000102EB8000026E22F009
:1027800000420A430266297E20682A6901290CD08A
:102790000021036902F01F02914023F4F0420A4332
:1027A000026135E04FF00041E6E74FF40061F0E7E9
:1027B00020682978026E02F0F842B2EB816F03D1F3
:1027C000016E21F00041016620682978426E02F016
:1027D000F842B2EB816F03D1416E21F000414166B6
:1027E00020682978826E02F0F842B2EB816F03D143
:1027F000816E21F00041816620682978C26E02F066
:10280000F842B2EB816F03D1C16E21F00041C16685
:102810002068816811F0010F72D150F8C03F2A7B07
:10282000DFF8FCC1296802F018022CFA02FCC1F39F
:10283000130823EA08030CEA010C43EA0C030360C3
:10284000E96859456CD177482268DFF8DCC1DFF8C8
:10285000DCB18242DFF8D8E17648774BDFF8DC81E3
:1028600022D12968614524D0B1EB4C0C38D0A1F1BC
:10287000496CBCF1080C35D0A1F1865CBCF1100CA0
:1028800032D0DFF8BCC1614528D071453AD08142D1
:1028900030D0994232D06B48814201D16A4831E050
:1028A00041452ED169482DE0B2422AD129686145BF
:1028B00001D1012026E0A1F1066CBCF1040C0FD07F
:1028C000A1F1496CBCF1080C0CD0A1F1865CBCF103
:1028D000100C09D0DFF868C1614507D15C4811E0F0
:1028E00058460FE05B480DE05B480BE0714509D0AE
:1028F000814201D1184605E09942D1D1574801E003
:102900003CE00020D16903031AD090FAA0F0B0FA9D
:1029100080F000BF00F01F0309FA03F00143D1610A
:10292000D5F800C0BCF1000F28DA3E4B20684C49B6
:10293000DFF83091984201D0B04203D10A4602E05C
:10294000800EE7E74A469268984202F0E07201D0B2
:10295000B04209D19D68D6F8088005F0010508F05D
:10296000010845EA080503E0DAF8085005F001051A
:102970004DB1606D012740F020006065002084F8B3
:102980005000384684E6384DAC451CD115021AD4A7
:102990005045F3D1984202D0B04200D049468B68EE
:1029A00042F4000023F0E07202438A6030492F486D
:1029B0000968B1FBF0F04000801C00E0401E009070
:1029C0000028FBD1DAE72B4DAC450CD1D5010AD458
:1029D0005045D3D1984202D0B04200D049468B68CE
:1029E00042F080700EE0244DAC45C7D15502C5D4ED
:1029F0005045C3D1984202D0B04200D049468B68BE
:102A000042F4800023F0E07202438A60B6E70000DF
:102A1000002102400000FF47006002580010005CE7
:102A2000FFFF0F0000200240020030044000201988
:102A30000004002A0008302E001060320000844B91
:102A40002000F01400002143000052470000B84F5E
:102A50000002B0258000501D00018021002090362A
:102A60000023024000630258000084CB400D0300A5
:102A70001C000024000052C70000B8CF10B50B4A5C
:102A80000168914210D100F018F800EE100A0848D1
:102A90000849B8EE400A81ED000A0068002803D01A
:102AA000BDE810401AF036B910BD00000020024009
:102AB000040000244400002470470068006C704744
:102AC0002DE9F05F0446006806684568DFF870820B
:102AD000DFF870B2DFF87092404501D0484501D16F
:102AE000584600E09948806800F01F07B0070ED5EF
:102AF000A8070CD5606DC00603D4606D40F400607B
:102B000060652046FFF711FD21680220086070070C
:102B100001D5680703D4300737D5280735D5606D50
:102B2000C00603D4606D40F400706065206804F056
:102B300063FB20B32068484501D1424600E00246CD
:102B4000824208D03FB1052F05D0092F03D0484558
:102B500003D1414602E0C16801E00146C968890429
:102B60000DD4016809070AD504F03EFB58B3606D27
:102B700040F010006065A06D40F00100A0652046A7
:102B8000FFF77CFF21680C200860B00601D5A8067D
:102B900003D4700658D5680656D5606DC00603D4B8
:102BA000606D40F4005060652068C16C11F4C07F16
:102BB0001AD000218A4604F01FFB024620684845CF
:102BC00014D1434613E02068416821F00C014160B4
:102BD000606D20F480706065606DC004CFD4606D5E
:102BE00040F001006065CAE70121E3E70346834244
:102BF00008D03FB1062F05D0072F03D0484503D199
:102C0000414602E0C16801E00146C968BAF1000F1F
:102C100014D08B0102D58AB18A040FD402685206FF
:102C20000CD589020AD404F0DBFAE8B3606D40F0F9
:102C300010006065A06D40F00100A0652046FFF720
:102C400075FC21686020086030060BD5280609D580
:102C5000606D40F480306065204600F08DF9216899
:102C600080200860F0050CD5E8050AD5606D40F4B9
:102C7000003060652046FFF75BFC21684FF48070F0
:102C80000860B0050CD5A8050AD5606D40F4802019
:102C900060652046FFF74DFC21684FF40070086026
:102CA000F00631D5E80600E00AE02DD5206BE8B14A
:102CB0002068EFB3404501D0484512D1584611E095
:102CC0002068416821F060014160606D20F480500F
:102CD0006065606DC005B1D4606D40F00100606555
:102CE000ACE71A48806800F4404050B1606D40F491
:102CF00080606065A06D40F00200A0652046FFF78F
:102D0000DBFE216810200860700517D5680515D511
:102D1000616D4FF4806041F480416165A16D41F0C7
:102D20000801A165216808602046BDE8F05F00E069
:102D300001E0FFF7FCBBC0688007D6E7BDE8F09F65
:102D4000002002400023024000210240006302589C
:102D5000F8B54FF0000604003546009602D0606DCD
:102D600010B107E00120F8BD204600F007F9A66584
:102D700084F8506020688168C1F3407119B181689E
:102D8000704A1140816020688168C1F3007181B987
:102D900081686D4A114041F0805181606C496B48F7
:102DA0000968B1FBF0F0401C00E0401E00900028D4
:102DB000FBD120688168C1F3007141B9616D0125C3
:102DC00041F010016165A16D41F00101A16504F0C0
:102DD0000BFA616DC90600D420B1606D012540F089
:102DE000100093E0606D20F4807040F00200606598
:102DF0002068816811F0010F1FD1564A564B90424E
:102E000001D0984207D191689E6801F0010106F057
:102E10000106314303E05149896801F0010161B9BC
:102E2000904201D0984201D14D4800E04D4882685F
:102E3000616822F47C120A43826001F019F841F2C1
:102E40000301884202D9A06810280CD0617D227F3E
:102E5000A368206B490341EA024118430843217FDC
:102E600001290CD010E0607D227F216B400340EAF5
:102E7000024241F01000104340F00C00EFE7218CBB
:102E8000394A02EB41410843616A29B1A26A01F45F
:102E90007871014342EA01002168344BCA681A4044
:102EA0000243CA60206804F09FF90646206804F0D7
:102EB00097F930431DD1216844F20303267DE26A6D
:102EC000C86842EA863298431043C86094F83800D4
:102ED00001281ED02068016921F0010101612068EC
:102EE000626B016921F07041114301612046FEF7D8
:102EF000F3FFE068012820681CD0016B21F00F016E
:102F00000163606D20F0020040F00100606528461A
:102F1000F8BD2068A28F164FD4E9101C154E07EBA0
:102F20000247A36C026941EA0C013B43324019435A
:102F30001143D3E7A269016B521E21F00F01114327
:102F4000DEE70000C0FFFF5FC0FFFF7F400D030012
:102F50001C000024002002400021024000600258B2
:102F600000230240006302580000FEFF03C0F0FF90
:102F70000100FFFF1EF800FC70470000F0B5B1B083
:102F80000446C0216846FDF74CFD20492068884270
:102F900039D10DF1080C02200C2480258CE8310079
:102FA000C0260590002329932027CDE906064FF47B
:102FB00000226846CDE90873CDE9002301F00EFE3A
:102FC00008B1FFF7F4F81248016841F020010160F0
:102FD000006800F0200030900D480830016841F092
:102FE00001010160006800F0010030904FF0807036
:102FF000014603F029F800220721122001F034FADB
:10300000122001F023FA31B0F0BD00000020024090
:10301000D84402582DE9F0415B4D044600685B4FEF
:10302000A84201D0B84201D1594900E05949896804
:1030300001F01F0604F0D8F818B102221046BDE8CE
:10304000F08194F8500001280CD0012084F8500041
:103050002046FEF7C5FF02004FF0000104D084F8BF
:103060005010EBE70220EAE7636D40F6016C206840
:1030700023EA0C03B84243F48073636501D12B4605
:1030800000E00346834200D01EB9636D23F4801331
:103090006365636DDB0404D5A36D23F00603A365AC
:1030A00000E0A1651C23036084F85010206841688B
:1030B00021F01C014160206908282068416802D085
:1030C00041F0040101E041F008014160206B20B9AA
:1030D0002068416841F0100141602068B84201D188
:1030E000294600E00146814220D0FEB1052E1DD0C8
:1030F000092E1BD0616DB84241F48011616500D08A
:103100000546E968890199D5616D236921F400516B
:10311000082B41F48051616541682BD021F04001BA
:1031200041602068416841F020012AE0C1688901BE
:1031300019D5636D216923F40053082943F48053A2
:103140006365416807D021F0400141602068416813
:1031500041F0200106E021F0200141602068416833
:1031600041F04001416020680B4B81681940091D06
:10317000816063E721F0200141602068416841F0EF
:10318000400141605AE70000002002400021024057
:103190000023024000630258C0FFFF7FF0B50446E1
:1031A000C8074FF0000010D01E23012603F01F07B0
:1031B00006FA07F50D4201D15B1EF7D27AB1082A53
:1031C0000BD0102A06D0182A01D00120F0BD072B01
:1031D000FBD204E0082BF8D201E0102BF5D22368D3
:1031E000596121688B6823F0180313438B60F0BD8D
:1031F00010B5040010D0607F20B900202077204651
:1032000000F032F821790220607739B1D4E9021256
:103210002046FFF7C3FF48B1012010BD21681148C7
:1032200048612068816821F0180181606079A0B14F
:10323000216820690861012220686369816821F0A2
:103240006001194381602068A369816821F08001D1
:10325000194381606277002010BD21684FF0FF3074
:10326000E8E70000B71DC10408B5006806498842B8
:1032700008D10648016841F400210160006800F4AB
:103280000020009008BD0000004C0258E0440258A5
:1032900070470000F0B590F86020012A22D0C1EB01
:1032A000C102012780F86070022380F8613000EBD2
:1032B0008202284D138F168EB2F83CC0D46A1B05CB
:1032C000283244EA064643EA4C530A2C46EA0306EF
:1032D0000AD0092C08D0137B46EA036349B10B2CB2
:1032E0001AD01DE00220F0BDD36803F07F433343C2
:1032F000F4E701684C6AAC431C434C6201681368F4
:103300008B6151680A2901D009291BD1D168026853
:1033100021F07F41916215E0118B0F4D43EA81430B
:103320000168CC69AC431C43CC61016813680B6134
:1033300051680A2901D0092904D1D168026821F015
:103340007F411162002180F8617080F860100846AA
:10335000F0BD00000F0033FF0F003FFF2DE9F047E5
:103360000446006800274FF004084FF00109466842
:103370000568F10714D0E90512D5036823F48073BA
:103380000360606E40F0010060662068C0F808903D
:1033900084F8618084F86070616A09B120468847CA
:1033A000B00615D5A80413D520682022036823F49D
:1033B0000053036020688260606E40F00200606627
:1033C00084F8618084F86070616A09B1204688479A
:1033D000300715D5280513D520680822036823F483
:1033E0000063036020688260606E40F004006066E5
:1033F00084F8618084F86070616A09B1204688476A
:1034000070070CD568050AD52068026822F480622E
:1034100002602068C0F80880204600F071F8B0070C
:1034200013D5A80511D520680222036823F4007380
:10343000036020688260606E606684F8619084F842
:103440006070216A09B120468847F00612D5E80469
:1034500010D52068016821F4805101602268102194
:103460009160616E616684F86190204684F86070B6
:10347000FFF70EFFBDE8F0872DE9F041040004D00E
:1034800094F86100002518B107E00120BDE8F08143
:10349000204684F8605000F035F8184E022084F879
:1034A00061000123D4E90010D4F81CC040F20712D7
:1034B0000F6840EA0C003740384308602068A7696D
:1034C000A168466B39439643314341632068E26803
:1034D000016C6FF30F01114301642068218AA28AF5
:1034E000466B090541EA425126F4401211434163FB
:1034F000656684F861300020C8E70000BFFFF8FF70
:103500007047000008B500680B49884212D10B488B
:10351000016841F01001016000680022052100F0FF
:10352000100000905A2000F09FFFBDE808405A208C
:1035300000F08CBF08BD000000100052D4440258B7
:103540002DE9F84F044600F099FC00903CB194F846
:103550003500022806D0802161650020E4E00120CA
:10356000BDE8F88FC74DC74EC649183520683036BC
:10357000DFF81483DFF814938842DFF814A3DFF830
:1035800014B32ED0A8422CD0B0422AD0404528D027
:10359000484526D0504524D0584522D0BD4A18323F
:1035A00090421ED0BC4A90421BD0BB4A1832904277
:1035B00017D0B94A3032904213D0B74A48329042BD
:1035C0000FD0B54A603290420BD0B34A7832904265
:1035D00007D0B14A9032904203D0AF4AA83290420D
:1035E00009D1026822F01E0202602068426922F0BE
:1035F0008002426103E0026822F00E020260276846
:103600008F4238464DD0A8424BD0B04249D04045B9
:1036100047D0484545D0504543D0584541D09D4AB4
:10362000183290423DD09C4A90423AD09A4A183281
:10363000904236D0984A3032904232D0964A483240
:1036400090422ED0944A603290422AD0924A7832E8
:10365000904226D0904A9032904222D08E4AA83290
:1036600090421ED08D4A90421BD08C4A1432904218
:1036700017D08A4A2832904213D0884A3C3290426E
:103680000FD0864A503290420BD0844A6432904226
:1036900007D0824A7832904203D0804A8C329742D7
:1036A00004D1206E026822F480720260754920689D
:1036B000884228D0A84226D0B04224D0404522D00B
:1036C000484520D050451ED058451CD0714918316E
:1036D000884218D07049884215D06F491831884205
:1036E00011D06D49303188420DD06B494831884244
:1036F00009D069496031884205D0674978318842EC
:1037000001D065499031016821F0010101600EE0AE
:1037100000F0B4FB0099401A052808D92022626500
:103720000321002084F8351084F8340017E7386846
:10373000C007EDD1534A0121206890422ED0A84203
:103740002CD0B0422AD0404528D0484526D05045FC
:1037500024D0584522D04F4B183398421ED04E4BA0
:1037600098421BD04C4B1833984217D04A4B3033F9
:10377000984213D0484B483398420FD0464B6033A1
:1037800098420BD0444B7833984207D0424B903349
:10379000984203D0404BA833984208D194F85C700B
:1037A0003F23A06D07F01F07BB40836007E094F83C
:1037B0005C30A06D03F01F0301FA03F3436020683F
:1037C00090424DD0A8424BD0B04249D0404547D05E
:1037D000484545D0504543D0584541D02D4A183230
:1037E00090423DD02C4A90423AD02B4A1832904217
:1037F00036D0294A3032904232D0274A483290425D
:103800002ED0254A603290422AD0234A7832904204
:1038100026D0214A9032904222D01F4AA8329042AC
:103820001ED01E4A90421BD01C4A1432904217D020
:103830001A4A2832904213D0184A3C3290420FD094
:10384000164A503290420BD0144A6432904207D04C
:10385000124A7832904203D0104A8C3290420BD1F7
:10386000D4E919024260E06E30B1026822F480723D
:103870000260D4E91C024260002084F8351084F80C
:1038800034006DE610000240580002407000024013
:1038900088000240A0000240100402400854025870
:1038A0002DE9F05F28B190F83510022904D080216D
:1038B00041650120BDE8F09F904C904B0168183C99
:1038C00018338E4ADFF83C92A1428D4CDFF838E283
:1038D0008E4FDFF83CB2DFF83CA28F4D8F4E31D0D7
:1038E00091422FD099422DD0A1422BD0494529D0C9
:1038F000714527D0B94225D0DFF810C20CF1180C61
:1039000061451FD0DFF808C2ACF1600C614519D0E9
:10391000DFF8FCC1ACF1480C614513D0DFF8F0C111
:10392000ACF1300C61450DD0DFF8E4C1ACF1180CFE
:10393000614507D0594505D0514503D0A94201D072
:10394000B1422CD1DFF8B4C14FF0040880F83580C3
:10395000ACF1180C61451DD091421BD0994219D091
:10396000A14217D0494515D0714513D0B94211D0A5
:103970006648183081420DD065486038814209D0D0
:1039800063484838814205D061483038814201D0CF
:103990005F481838086820F001000860ABE0D1F8F3
:1039A00000C02CF00E08DFF854C1C1F80080ACF163
:1039B000180C0168614527D0914225D0994223D047
:1039C000A14221D049451FD071451DD0B9421BD01D
:1039D000DFF838C10CF1180C614515D0DFF830C1A3
:1039E000ACF1600C61450FD0DFF824C1ACF1480C9C
:1039F000614509D0DFF818C1ACF1300C614503D046
:103A0000DFF80CC1ACF1180CD1F800C02CF0010C9F
:103A1000C1F800C0DFF8E4804FF0010C0168A8F1A4
:103A20001808414546D0914244D0994242D0A14223
:103A300040D049453ED071453CD0B9423AD0334A96
:103A40001832914236D0324A603A914232D0304AEE
:103A5000483A91422ED02E4A303A91422AD02C4AEE
:103A6000183A914226D0594524D0514522D0A94236
:103A700020D0B1421ED02A4A91421BD0284A14328B
:103A8000914217D0264A2832914213D0244A3C3220
:103A900091420FD0224A503291420BD0204A6432D8
:103AA000914207D01E4A7832914203D01C4A8C3290
:103AB000914218D1016E0A6822F480720A6090F86F
:103AC0005C20816D02F01F020CFA02F24A60D0E91C
:103AD00019124A60C16E31B10A6822F480720A601C
:103AE000D0E91C124A600022016D80F835C080F8D0
:103AF000342001B188470020DCE6000028000240A5
:103B0000580002407000024088000240A0000240BD
:103B10007004024088040240A0040240B80402403D
:103B2000085402582DE9F041B6B0142130A8FCF732
:103B300078FF3348016800295FD14FF00108C0F8D1
:103B40000080C0216846FCF76CFF002012904FF007
:103B500080710446CDE90010684601F03FF808B1D5
:103B6000FEF725FB2748016841F480510160006899
:103B70000226032700F4805035904FF68370CDE97C
:103B8000300621480C25CDE9324730A9349500F0A4
:103B900047F848F237103495CDE930061B4830A974
:103BA000CDE9324700F03CF84CF203703495CDE992
:103BB0003006174830A9CDE9324700F031F84FF60A
:103BC0003F003495CDE93006124830A9CDE932479F
:103BD00000F026F8CDF8C08030A9CDE931640E4858
:103BE000CDE9337500F01CF80C4830A9CDE930560A
:103BF000CDE93247349500F013F836B0BDE8F081D6
:103C000008000024D444025800100258001802583A
:103C1000000C02580014025800080258001C0258F8
:103C20002DE9F84F03247D4D00234FF001094FF09B
:103C3000B04B4FF00F0AE9E009FA03F73A4076D0AB
:103C40000E7906F00306012E01D0022E18D1D0F80D
:103C500008C04FEA430ECE6804FA0EF82CEA080CAE
:103C600006FA0EF646EA0C068660D0F804C00E7915
:103C70002CEA070CC6F300169E4046EA0C06466086
:103C80000E79F643B6070BD0C6684FEA43088F6833
:103C900004FA08FC26EA0C0607FA08F73743C7605F
:103CA0000E7906F00306022E12D1DE080F694FEAE4
:103CB000437C00EB8606B646366A4FEADC6C0AFAAD
:103CC0000CF807FA0CF726EA08063743CEF82070FE
:103CD0000F7906684FEA430807F0030704FA08FC67
:103CE00007FA08F726EA0C06374307604E6816F411
:103CF000403F1CD04A4E376847F0020737603668AD
:103D00009F0706F00206009623F0030606F1B04670
:103D1000B6463F0FD6F80864DFF808810AFA07FCB8
:103D2000404526EA0C0603D14FF0000C41E06CE060
:103D3000DFF8F4C0604502D14FF0010C39E0DFF844
:103D4000ECC0604502D14FF0020C32E0DFF8E0C079
:103D5000604502D14FF0030C2BE0DFF8D8C060457E
:103D600002D14FF0040C24E0DFF8CCC0604502D152
:103D70004FF0050C1DE0DFF8C4C0604502D14FF0E4
:103D8000060C16E0DFF8B8C0604502D14FF0070C12
:103D90000FE0DFF8B0C0604502D14FF0080C08E03A
:103DA000DFF8A4C0604502D14FF0090C01E04FF0EC
:103DB0000A0C0CFA07FC4CEA060CCEF808C44F6853
:103DC000DBF80060FF0226EA020600D516435F46D4
:103DD000CBF80060D1F804C0DBF804605FEA8C2CFB
:103DE00026EA020600D516437E606E684F6826EA12
:103DF0000206BF0300D516436E602E684F6826EAA0
:103E00000206FF0300D516432E605B1C0A6832FAD7
:103E100003F67FF411AFBDE8F88F00008000005872
:103E2000F4440258000002580004025800080258E6
:103E3000000C0258001002580014025800180258D2
:103E4000001C025800200258002402580069084053
:103E500000D001207047426921EA02030A4043EA88
:103E60000241816170470AB1816170470904FBE733
:103E700001480068000C70470010005C0148806831
:103E80007047000010000024024881680278114445
:103E90008160704710000024032010B500F004FB7F
:103EA00001F014FD0F4A104914681368C4F303228B
:103EB00003F00F038A5CC95C02F01F0201F01F01CE
:103EC000D0400A4A20FA01F11160094908600F2028
:103ED00000F010F808B1012010BD00F0A5FA002094
:103EE00010BD00001844025840FF0190200000243B
:103EF0001C00002410B5102804468AB02CD20022E1
:103F00000146362000F0B0FA362000F09FFA17483C
:103F100004601748016841F010010160006809A9B8
:103F200000F010000890684601F05CFC0598B0B104
:103F300001F0A8FC40000F4900220F4CB0FBF1F14A
:103F40000E4840F2E7330460C0E90332491EC0E97D
:103F5000011202F027F928B101200AB010BD01F0CA
:103F600091FCE8E7054802F0C1F9F6E714000024E7
:103F7000E844025840420F0000100040D84A002494
:103F80002DE9F041044690F8A00016460F4601289E
:103F90001DD0012584F8A050022084F8A10006EB72
:103FA000860000EBC600342204EB80003830FCF7BA
:103FB000DCFC32463946204603F02CF9216800200B
:103FC0004D6284F8A15084F8A000BDE8F081022081
:103FD000FBE770472DE9F0410446006800274FF0E9
:103FE0000408856B466B690715D5710713D5426BBD
:103FF00022F0040242632068C0F83C80D4F8A40098
:1040000040F00100C4F8A40084F8A180204684F8A0
:10401000A070FFF7DEFFA80716D5B00714D52068FB
:104020000222436B23F0020343632068C263D4F887
:10403000A40040F00200C4F8A40084F8A180204647
:1040400084F8A070FFF7C5FF05EA06004FF00108ED
:10405000C0070ED021684A6B22F001024A63216832
:10406000C1F83C8084F8A180204684F8A07000F05C
:1040700075F8280710D530070ED520680822436B45
:1040800023F0080343632068C26384F8A1802046BC
:1040900084F8A07000F078F9BDE8F0812DE9F041D6
:1040A000040004D094F8A100002518B107E0012015
:1040B000BDE8F081204684F8A05000F087F8022087
:1040C00084F8A10020680123816921F07041816199
:1040D000D4E90010D4E902722669384332438E696C
:1040E0001043304388612268A08AA16941EA0041F7
:1040F00091602268A08B216A41EA0041D160226868
:10410000A08CA16A41EA004111612268A08D216B57
:1041100041EA00415161226894F8351094F8360064
:10412000D66A000406F07F46D662226840EA012083
:1041300094F83460D16A31430143D1622068416B05
:1041400041F0060141632068816941F0010181610C
:10415000C4F8A45084F8A1300020A9E710B5184C89
:10416000216800292AD01749174A0B6C11888B4205
:1041700015D1518800F0E6F82068002290F86A1006
:10418000491C80F86A1080F87C200AF077FF2068CC
:104190000DF05CFEBDE8104000200EF0DEBF00F028
:1041A000D1F824682068016A20468847012084F8F5
:1041B0007C00BDE8104000200EF0D1BF10BD000013
:1041C0007402002400100050E00000242DE9F043A8
:1041D000B7B00446142130A8FCF723FCC021684680
:1041E000FCF71FFC5049206888427CD10AAF4FF48D
:1041F000A5730225192287E82C00002110910A26B8
:104200000C4640040D95CDE90E61CDE900016846EC
:10421000119100F0E3FC08B1FDF7C9FF43480168C4
:1042200041F008010160006800F0080035903F4847
:10423000001F016841F480610160016801F4806140
:104240003591016841F040010160016801F04001D1
:104250003591016841F400710160016801F4007159
:104260003591016841F080010160016801F0800131
:104270003591016841F480710160006832AA03261B
:1042800000F480703590FE20CDE930050E272848D7
:1042900082E8D00030A9FFF7C3FC4FF480614FF0F3
:1042A000090832AA2348CDE9301530A982E8500127
:1042B000FFF7B6FC32AA4FF2FF30CDE930051E48B9
:1042C00030A982E8D000FFF7ABFC4FF40040DFF8E4
:1042D0006C9032AACDE9300530A9484682E8D0007A
:1042E000FFF79EFC00E01CE04FF4704032AACDE9DD
:1042F0003005134830A982E8D000FFF791FC102167
:10430000484632AACDE9301530A982E85001FFF7BE
:1043100087FC00220521582000F0A6F8582000F064
:1043200095F837B0BDE8F08300100050E44402581F
:10433000002802580018025800240258001C025895
:104340000020025870B590F8A020012A18D00D4D19
:10435000012380F8A030022280F8A120002450F828
:10436000A02B566B26F001065663296450F8A01C5A
:104370004A6B42F001024A6343700470204670BDEC
:10438000022070BD0010005070470000154BF0B5C2
:10439000083B427813491A600B680A1F23F0010397
:1043A0000B6043681360057BC67A827A437B2D07D6
:1043B000847B45EA0665C77B90F809C0067A90F8C9
:1043C00000E045EAC24040EA834040EA444040EA17
:1043D000074040EA0C2040EA460040EA0E00086030
:1043E000F0BD0000A0ED00E0BFF35F8F04480021A6
:1043F0000368034A23F4803303607032116070470E
:1044000024ED00E0074A40F00100064970321060D8
:10441000086840F480300860BFF34F8FBFF36F8FA0
:104420007047000024ED00E0074882B0016841F0C9
:1044300002010160006800220F2100F002000090DC
:10444000901E02B000F010B8F4440258002809DBB6
:10445000410900F01F028900012001F1E021904094
:10446000C1F80001704700000E4BF0B41B680D4608
:10447000C3F30223C3F10706042E00D90426191D35
:10448000072901D2002300E0DB1E012404FA06F113
:104490009C40491E2940641E994014402143F0BCB1
:1044A00018F03BB90CED00E0064900F0070210B52A
:1044B0004FF6FF040868044B204040EA02201843EE
:1044C000086010BD0CED00E00000FA05134970B55E
:1044D0000A68D243520705D5096801F007018142F5
:1044E00013D118E00A6822F0070202430A60FFF7BE
:1044F000C5FC0A4D4FF47A760446083D07E000BF3C
:10450000FFF7BCFC001BB04201D9012070BD286838
:10451000C0438004F4D4002070BD00000C48025851
:1045200010B501F08DF905490968054AC1F302117A
:10453000515C01F01F01C84010BD0000204402582A
:1045400040FF01904A4930B5494C0B1D0A680C34B4
:1045500009681D68246802F0030305F00102C1F335
:104560000511C4F3CC04002914FB02F200EE102A5A
:10457000F8EE400A76D0414A9FED3E1ADFED3E1A32
:10458000B7EE000A23B1012B5AD0022B18D15CE000
:10459000374C283C23689B0612D5394B246801EE22
:1045A000901A1168C4F3C104F8EE612AE34001EEE9
:1045B000903AC1F30801F8EE611A81EEA22A07E0F1
:1045C00002EE101A1168F8EE422A81EEA22A45E0A6
:1045D00001EE901A1168F8EE611A40EE811A71EE40
:1045E000800A62EE200AC1F3462101EE101AB8EEED
:1045F000411A31EE001AC0EE811ABCEEE11A80EDCC
:10460000001A1168C1F3064101EE101AB8EE411A02
:1046100031EE001AC0EE811ABCEEE11A80ED011AEB
:104620001168C1F3066101EE101AB8EE411A31EEBD
:10463000000A80EE801ABCEEC10A80ED020A30BD8D
:1046400001EE901ADFED0F2A03E001EE901ADFED84
:104650000E2A1168F8EE611A82EEA12AC1F3080150
:10466000B6E7FFE7002101604160816030BD0000D6
:1046700028440258000000390024744C3044025889
:104680000090D0030024744A20BCBE4B494930B589
:10469000484C0B1D0A68143409681D68246802F030
:1046A0000303C5F30012C1F30531C4F3CC040029A0
:1046B00014FB02F200EE102AF8EE400A75D03F4AD1
:1046C0009FED3D1AB7EE000A6BB1DFED3D1A012BED
:1046D00001D0022B64D002EE101A1168F8EE422AC3
:1046E00081EEA22A21E0334C283C23689B0612D598
:1046F000344B246801EE901A1168C4F3C104F8EE3B
:10470000612AE34001EE903AC1F30801F8EE611A24
:1047100081EEA22A0BE001EE901ADFED2B2A00BFFA
:10472000F8EE611A116882EEA12AC1F3080101EEC8
:10473000901A1168F8EE611A40EE811A71EE800A43
:1047400062EE200AC1F3462101EE101AB8EE411ABA
:1047500031EE001AC0EE811ABCEEE11A80ED001AAB
:104760001168C1F3064101EE101AB8EE411A31EE9C
:10477000001AC0EE811ABCEEE11A80ED011A116830
:10478000C1F3066101EE101AB8EE411A31EE000ACB
:1047900080EE801ABCEEC10A80ED020A30BD04E052
:1047A00001EE901ADFED092ABAE7002101604160AD
:1047B0008160F3E728440258000000393844025869
:1047C0000024744A0090D0030024744C20BCBE4BDB
:1047D000494930B5484C0B1D0A681C3409681D68EE
:1047E000246802F00303C5F30022C1F30551C4F3AA
:1047F000CC04002914FB02F200EE102AF8EE400A65
:1048000075D03F4A9FED3D1AB7EE000A6BB1DFED60
:104810003D1A012B01D0022B64D002EE101A116850
:10482000F8EE422A81EEA22A21E0334C283C23688C
:104830009B0612D5344B246801EE901A1168C4F31C
:10484000C104F8EE612AE34001EE903AC1F3080199
:10485000F8EE611A81EEA22A0BE001EE901ADFED6C
:104860002B2A00BFF8EE611A116882EEA12AC1F36B
:10487000080101EE901A1168F8EE611A40EE811AF3
:1048800071EE800A62EE200AC1F3462101EE101A91
:10489000B8EE411A31EE001AC0EE811ABCEEE11AF0
:1048A00080ED001A1168C1F3064101EE101AB8EE4E
:1048B000411A31EE001AC0EE811ABCEEE11A80ED09
:1048C000011A1168C1F3066101EE101AB8EE411A1F
:1048D00031EE000A80EE801ABCEEC10A80ED020AB9
:1048E00030BD04E001EE901ADFED092ABAE700219D
:1048F000016041608160F3E72844025800000039FC
:10490000404402580024744A0090D0030024744CA0
:1049100020BCBE4B2DE9F04FAC4A0546DFF8A8A2FB
:1049200080F48070DFF8AC9289B01311AA4C084370
:10493000A748AAF104064FF0805C4FF000582CD035
:1049400085F400770F4357D0DFF87CB285F4806799
:104950000F430BF1080B61D085F400670F4374D04F
:1049600085F480570F436ED085F400570F434FF402
:1049700080394FF4003E67D085F400270F4371D093
:1049800085F480370F436ED085F480460E436BD09C
:1049900085F400420A4368D02AE0DAF8001001F0FA
:1049A0000701052924D2DFE801F075BC7D25B1009F
:1049B00006A8FFF7C7FD079809B0BDE8F08F684665
:1049C000FFF764FE0098F7E703A8FFF701FF0398DD
:1049D000F2E72068C0F3C10022FA00F0ECE7226899
:1049E000D20571D561456FD11846E5E74145E3D061
:1049F0000020E1E74846DFE7DAF8001001F4E07153
:104A000080294FD004DC002944D04029F0D188E02F
:104A1000C029EFD0B1F5807FEAD177E0DBF8001054
:104A200001F46001B1F5800F3CD004DC91B3B1F525
:104A3000001FDDD175E0B1F5C00FDBD0B1F5000F7F
:104A4000D6D163E001E018E030E0DBF8001001F0BF
:104A5000E061B1F1007F25D008DCD9B1B1F1807FF0
:104A6000C6D15EE049E06CE079E09CE0B1F1407FC6
:104A7000C0D0B1F1806FBBD148E0DAF8001001F48A
:104A8000E041B1F5005F0DD005DC19B1B1F5805FF3
:104A9000AED146E094E0B1F5405FABD0B1F5804FC8
:104AA000A6D133E020688000A2D58DE7DAF80010A7
:104AB00001F4E021B1F5403F6CD006DC61B149451D
:104AC0007AD0714594D157E037E0B1F5802F65D0A9
:104AD000B1F5A02F8CD10CE000F0D4FE6CE7684655
:104AE000FFF7D4FD019867E703A8FFF771FE04986C
:104AF00062E721688903F1D47AE7DBF8001011F44A
:104B000040310ED0494510D07145F5D13168256846
:104B100001F040516D077FF562AF00297FF45FAF70
:104B200057E720680001E7D549E720688000E3D512
:104B300003A8FFF74DFE05983EE722689203DBD5F8
:104B400054E7306810F480303AD04845D4D120681A
:104B50000001D1D56846FFF799FD02982CE7DBF8F4
:104B6000001001F0E041B1F1405F13D008DC71B1F9
:104B7000614521D04145BFD120688000B4D437E7DA
:104B8000B1F1804F0AD0B1F1A04FB2D030E7FFF7BA
:104B9000C7FC11E720684007AED51AE72068C005BA
:104BA000AAD521E708E0DAF8001011F04051A0D0B2
:104BB000614505D041459FD1206800018FD417E79A
:104BC0002068800198D5F3E6504402580090D00345
:104BD00040787D010080BB00004402582DE9FE4F63
:104BE0000546DFF8E48350F8081B0024F64FC9435C
:104BF000019005F12800264608F1240800900801DC
:104C00001DD4A86E50B1B0F5801F0CD0B0F5001FB8
:104C10000ED0B0F5401F1ED001240FE0386840F4DC
:104C20000030386017E00198022102F0ABFF03E08A
:104C30000098022103F036F804000CD0264628889C
:104C4000C043C00523D4A86D05281ED2DFE800F0BC
:104C50000C11161B1B00AA6ED8F8001021F440118D
:104C60001143C8F80010EAE7386840F400303860B3
:104C700009E00198002102F085FF03E0009800217F
:104C800003F010F8044674B100E001242646288899
:104C9000C043800528D4E86D80281ED00CDC90B17C
:104CA00040280ED114E0AA6DD8F8001021F00701B9
:104CB0001143C8F80010EAE7C02813D0B0F5807F90
:104CC00010D001240FE0386840F40030386009E06B
:104CD0000198002102F056FF03E00098002102F045
:104CE000E1FF04469CB126462888DFF8DC92C043E9
:104CF00009F12C0940052CD4D5F8A800B0F5800F97
:104D000020D00DDCA0B1B0F5001F0FD115E0EA6D89
:104D1000D8F8001021F4E0711143C8F80010E3E75F
:104D2000B0F5C00F13D0B0F5000F10D001240FE084
:104D3000386840F40030386009E00198002102F042
:104D400021FF03E00098002102F0ACFF04467CB193
:104D500026462888C04300052DD4D5F8AC00B0F114
:104D6000007F21D00EDCA8B1B0F1807F10D116E019
:104D7000D5F8A820D9F8001021F460011143C9F832
:104D80000010E6E7B0F1407F13D0B0F1806F10D093
:104D900001240FE0386840F40030386009E00198E1
:104DA000002102F0EFFE03E00098002102F07AFFFC
:104DB000044674B126462868C04380011FD4E86CBD
:104DC000D8B110280FD0202812D0302815D00124B7
:104DD00014E0D5F8AC20D9F8001021F0E0611143BF
:104DE000C9F80010E7E7386840F40030386004E0A4
:104DF0000198022102F0C6FE044674B126462888B6
:104E0000C043C0042BD4286EB0F5005F20D00DDC69
:104E1000A0B1B0F5805F0FD115E06B48EA6C20308F
:104E2000016821F0300111430160E8E7B0F5405F0F
:104E300013D0B0F5804F10D001240FE0386840F453
:104E40000030386009E00198002102F09BFE03E089
:104E50000098002102F026FF04468CB126462888DF
:104E6000C043800429D4686EB0F5403F23D010DCE5
:104E700008B3B0F5803F14D0B0F5003F0FD115E076
:104E80002A6ED8F8001021F4E0411143C8F8001050
:104E9000E5E7B0F5802F0ED0B0F5A02F0BD00124A0
:104EA0000AE00198012102F06DFE03E00098012163
:104EB00002F0F8FE044694B126462888C043400418
:104EC0002AD4D5F8B000B0F1405F23D010DC08B38D
:104ED000B0F1805F14D0B0F1005F0FD115E06A6EC1
:104EE000D8F8001021F4E0211143C8F80010E4E7DD
:104EF000B0F1804F0ED0B0F1A04F0BD001240AE0EA
:104F00000198012102F03EFE03E00098012102F029
:104F1000C9FE044674B126462888C04300041FD445
:104F2000286FD8B1B0F1805F0ED0B0F1005F10D023
:104F3000012414E0D5F8B020D9F8001021F0E041A8
:104F40001143C9F80010E7E7386840F400303860D2
:104F500004E00198012102F015FE044674B12646D2
:104F60002868C043C0011ED4A86CD0B101280ED05F
:104F7000022811D0032814D0012413E02A6FD8F896
:104F8000001021F040511143C8F80010E8E73868DC
:104F900040F40030386004E00198022102F0F2FD94
:104FA0000446ACB126462868DFF81CB0C043ABF11C
:104FB0001C0B400252D40548016841F48071016025
:104FC000FEF75CFF824611E02C440258004802586C
:104FD000FA48AA6C016821F0030111430160E2E77D
:104FE000FEF74CFFA0EB0A00642835D8F4480068AF
:104FF000C005F5D58CBBDFF8C4A3B5F8B4100AF131
:10500000240ADAF8000001F4407100F4407088428C
:1050100011D0DAF80010DAF8002021F4407142F4DF
:105020008032CAF80020DAF8002022F48032CAF870
:105030000020CAF80010D5F8B400B0F5807F1AD16E
:10504000FEF71CFF029012E0FEF718FF0299411ACA
:1050500041F2883081420AD9032426462878DFF8B5
:105060005CA3C0430AF1080AC00721D03CE0DAF88B
:1050700000008007E8D5D5F8B410C1F3012003285B
:1050800058460DD0016821F47C510160B5F8B42078
:10509000DAF80010C2F30B021143CAF80010DDE782
:1050A000C84A036802EA111223F47C511143ECE769
:1050B000E86F182816D005DCA0B1082808D0102801
:1050C00004D10AE020280DD028280BD001240AE0C2
:1050D0000198012102F056FD03E00098012102F041
:1050E000E1FD044664B126462878C04380071ED4FB
:1050F000A86F062819D2DFE800F0160C1116161654
:10510000EA6FDAF8001021F038011143CAF80010F4
:10511000EAE70198012102F035FD03E00098012142
:1051200002F0C0FD04467CB100E001242646287848
:10513000C04340071FD4D5F89400062819D2DFE8F1
:1051400000F0160C11161616AA6FDAF8001021F0EE
:1051500007011143CAF80010E9E70198012102F0A4
:1051600011FD03E00098012102F09CFD0446A4B16A
:1051700000E0012426462878C04380062BD4D5F8C9
:105180009000B0F1405F24D011DC10B3B0F1805F2B
:1051900015D0B0F1005F10D116E0D5F89420D9F801
:1051A000001021F007011143C9F80010E3E7B0F146
:1051B000804F0ED0B0F1A04F0BD001240AE001982F
:1051C000002102F0DFFC03E00098022102F06AFDFA
:1051D000044694B126462878C04340062BD4D5F81F
:1051E0009C00B0F5406F24D011DC10B3B0F5806F97
:1051F00015D0B0F5006F10D116E0D5F89020DAF890
:10520000001021F0E0411143CAF80010E3E7B0F5C7
:10521000805F0ED0B0F5A05F0BD001240AE00198AA
:10522000002102F0AFFC03E00098022102F03AFDF9
:10523000044694B126462878C04300062BD4D5F8FE
:10524000A000B0F5C04F24D011DC10B3B0F5005F62
:1052500015D0B0F5804F10D116E0D5F89C20D9F8C4
:10526000001021F4E0511143C9F80010E3E7B0F554
:10527000004F0ED0B0F5204F0BD001240AE001986A
:10528000002102F07FFC03E00098022102F00AFDF9
:10529000044654B126462878C04300071ED4D5F8EA
:1052A0008400B0F5805F0AD00FE0D5F8A020D9F8CF
:1052B000001021F460411143C9F80010EBE7009899
:1052C000022102F0EFFC00B10126D5F88420DAF8C3
:1052D000001021F440511143CAF800102878C0434F
:1052E000C00613D4D5F89800B0F5807F05D100989A
:1052F000022102F0D7FC00B10126D5F89820D9F898
:10530000001021F440711143C9F800102868C0430F
:10531000000316D4D5F8A40038B1B0F5803F09D009
:10532000B0F5003F0BD001240AE00198002102F003
:1053300029FC03E00098022102F0B4FC04468CB181
:1053400026462868C043400322D4D5F88800B0F52B
:10535000801F11D0B0F5001F13D0B0F5401F15D03D
:10536000012414E0D5F8A420D9F8001021F440312C
:105370001143C9F80010E4E7386840F400303860A1
:1053800004E00098012102F08DFC04465CB1264641
:105390002868C043C00323D4286DA8B1B0F5803F6E
:1053A00017D001241BE0D5F88820DAF8001021F48A
:1053B00040111143CAF80010EAE700004C440258BB
:1053C00000480258CFFFFF00386840F400303860D2
:1053D00004E00198022102F0D5FB0446E4B1264620
:1053E0002868C043800005D40098022102F05AFCCE
:1053F00000B101262868C04380031BD4D5F8800083
:10540000B0B1B0F5807F0FD0B0F5007F10D0B0F50F
:10541000407F0DD001240CE05A482A6D016821F428
:10542000803111430160DBE7386840F400303860B8
:10543000ECB326462868C043C00207D46A6FD8F888
:10544000001021F000411143C8F800102868C04343
:10545000C00008D4D5F8B820DBF8001021F4804152
:105460001143CBF800102868C043800207D4EA6ECD
:10547000D8F8001021F080711143C8F80010286896
:10548000C04340000CD4DBF8001021F40041CBF8FD
:105490000010DBF80010D5F8BC201143CBF8001049
:1054A0002868C04308D437486A6D016800E018E0F6
:1054B00021F04051114301602868C043000208D424
:1054C000D5F88C20DAF8001021F440011143CAF815
:1054D000001028790024C04300F0010020430AD0C6
:1054E0000FE0D5F88020DAF8001021F44071114364
:1054F000CAF800109EE70198002102F043FB00B1BA
:1055000006462879C04300F00200204305D10198E7
:10551000012102F037FB00B106462879C04300F0B4
:105520000400204305D10198022102F02BFB00B1B9
:1055300006462879C04300F00800204305D10098B2
:10554000002102F0AFFB00B106462879C04300F00D
:105550001000204305D10098012102F0A3FB00B107
:1055600006462879C04300F02000044304D1009887
:10557000022102F097FB00B916B10120BDE8FE8FB1
:105580000020FBE74C4402582DE9F05F04000F4671
:105590007ED0DFF83882D8F8000000F00F00B84263
:1055A0000CD2D8F8001021F00F013943C8F80010D0
:1055B000D8F8000000F00F00B84269D12078844D7F
:1055C00040070AD52069296801F07001884204D992
:1055D000296821F070010143296020787C4E361D36
:1055E00000070AD56069316801F07001884204D96A
:1055F000316821F07001014331602078C0060AD57E
:10560000A069316801F4E061884204D9316821F46D
:10561000E061014331602078DFF8B4B180060BF11E
:10562000080B0CD5E1695846DBF8002002F0700247
:10563000914204D9026822F070020A430260207885
:1056400080070AD5E068296801F00F01884204D973
:10565000296821F00F01014329602078C0073ED05E
:105660005B49A2682868183920F4706010432860EC
:105670006068022818D0032819D00968012819D0B9
:10568000490700294ADADFF848A1AAF1080A00E030
:1056900044E0DAF8002022F007020243CAF80020B2
:1056A000FEF7ECFB814612E009688903E9E7096827
:1056B0008901E6E7C905E4E7FEF7E0FBA0EB090195
:1056C00041F28830814202D90320BDE8F09F616831
:1056D000DAF8000000F03800B0EBC10FECD1207810
:1056E00080070AD5E068296801F00F01884204D2DA
:1056F000296821F00F0101432960D8F800104046C5
:1057000001F00F01B9420BD9016821F00F013943B3
:105710000160006800F00F00B84201D00120D4E71A
:10572000207840070AD52069296801F07001884275
:1057300004D2296821F07001014329602078000714
:105740000AD56069316801F07001884204D231687D
:1057500021F07001014331602078C0060AD5A069AC
:10576000316801F4E061884204D2316821F4E061DB
:1057700001433160207880060CD5E1695846DBF89A
:10578000002002F07002914204D2026822F07002FE
:105790000A43026000F09AF80E492A682B68C2F3A7
:1057A000032203F00F038A5CC95C02F01F0201F0C0
:1057B0001F01D040084A20FA01F111600749086032
:1057C00007480068BDE8F05FFEF794BB0020005278
:1057D0001844025840FF0190200000241C000024BF
:1057E0001400002470B5144C3F220260124A246851
:1057F0000832131D114D04F00704446016681C1D87
:1058000006F470668660166806F00F06C6601268B9
:1058100002F0700202611A6802F0700242611A68B6
:1058200002F4E0628261226802F07002C2612868BC
:1058300000F00F00086070BD1044025800200052B4
:1058400030B500F043F80B4A0B490C4B156814684F
:10585000C5F3032204F00F048A5C095D02F01F0205
:1058600001F01F01D040064A20FA01F119601060D2
:10587000084630BD1844025840FF01902000002423
:105880001C00002400B5FFF7DBFF05490968054A45
:10589000C1F30211515C01F01F01C84000BD0000BE
:1058A0001C44025840FF019000B5FFF7C9FF0549AD
:1058B0000968054AC1F30221515C01F01F01C8408B
:1058C00000BD00001C44025840FF0190454970B5DE
:1058D00045480968434B103B11F0380208D00111CC
:1058E000082A03D0102A0BD0182A0BD0084670BD06
:1058F00019688906FBD51968C1F3C101C84070BD9C
:105900003A4870BD3749374D18310C1D24350A68A7
:10591000096826682D6802F0030406F00102C1F34D
:105920000511C5F3CC0515FB02F200EE102AB8EE06
:10593000400AE9B32F4ADFED2E0AB7EE001A6CB128
:10594000DFED2D1A012C01D0022C43D002EE101AEB
:105950001068F8EE422A81EEA22A1EE01C68A40616
:1059600011D51B6801EE901A1168C3F3C103F8EE5C
:10597000612AD84001EE900AC1F30800F8EE611ADE
:1059800081EEA22A0BE001EE901ADFED1C2A00BF87
:10599000F8EE611A106882EEA12AC0F3080001EE49
:1059A000900AF8EE611A40EE201A31EE810A00E00A
:1059B00015E022EE000A1068C0F34620401C00EEFD
:1059C000900AF8EE600A80EE201ABCEEC10A10EED2
:1059D000100A70BD01EE901ADFED092AD8E7002009
:1059E00070BD0000104402580090D00340787D0143
:1059F00000000039304402580024744A0024744CDA
:105A000020BCBE4B2DE9F05F04007DD0FF4F207815
:105A1000FE4D1837DFF8F493103DC00748D0D9F891
:105A20000000396800F03800102815D0182803D17C
:105A300001F0030002280FD06068B0F5803F12D05B
:105A400010B1B0F5A02F18D0286820F4803028605D
:105A5000286820F4802009E02868800328D5606841
:105A60000028D2D024E0286840F4803028606068A4
:105A700088B1FEF703FA064609E0286840F4802062
:105A80002860F0E7FEF7FAF9801B64286FD82868D1
:105A90008003F7D50CE0FEF7F1F9064605E000BFFC
:105AA000FEF7ECF9801B6428F0D828688003F7D44F
:105AB000207841F20308D54E0C3E800769D5D9F80D
:105AC0000000396810F038000ED0182801D188077E
:105AD0000AD0E06890B3296821F0190101432960D8
