:0200000490006A
:1000000048B90124590400907F6500901F5C00905E
:100010007D65009015100090757E00900000000036
:1000200000000000000000000000000099030090A4
:100030000111009000000000F50300903568009069
:100040007304009073040090730400907304009094
:100050007304009073040090730400907304009084
:100060007304009073040090730400907304009074
:100070007304009073040090730400907304009064
:1000800073040090730400900910009073040090B2
:100090007304009073040090730400907304009044
:1000A0007304009073040090730400907304009034
:1000B0007304009073040090730400907304009024
:1000C0007304009073040090730400907304009014
:1000D000730400905D7E0090697E00907304009030
:1000E00073040090730400900000000073040090FB
:1000F0002D6A0090730400907304009073040090C4
:1001000073040090730400907304009073040090D3
:100110007304009073040090216A009073040090AF
:1001200073040090730400907304009073040090B3
:1001300073040090730400907304009073040090A3
:1001400000000000000000000000000000000000AF
:100150007304009073040090730400907304009083
:100160007304009073040090730400907304009073
:100170007304009073040090730400907304009063
:100180007304009073040090FD710090730400905C
:100190007304009073040090730400907304009043
:1001A000FD5C009073040090F510009073040090C3
:1001B0007304009073040090730400907304009023
:1001C0007304009073040090730400907304009013
:1001D0007304009073040090730400907304009003
:1001E00073040090730400907304009073040090F3
:1001F00073040090730400907304009073040090E3
:1002000073040090730400907304009073040090D2
:100210007304009073040090156A009073040090BA
:1002200073040090730400907304009000000000B9
:1002300073040090730400900000000073040090A9
:100240007304009073040090730400907304009092
:100250007304009073040090730400907304009082
:100260007304009073040090730400907304009072
:100270007304009073040090730400900000000069
:100280007304009073040090730400900000000059
:10029000000000007304009000F002F800F06DF818
:1002A0000AA090E8000C82448344AAF10107DA45D1
:1002B00001D100F062F8AFF2090EBAE80F0013F0B6
:1002C000010F18BFFB1A43F001031847F07D21000E
:1002D000107E21000A444FF0000C10F8013B13F08F
:1002E000070408BF10F8014B1D1108BF10F8015B8F
:1002F000641E05D010F8016B641E01F8016BF9D182
:1003000013F0080F1EBF10F8014BAD1C0C1B09D1D8
:100310006D1E58BF01F801CBFAD505E014F8016B4A
:1003200001F8016B6D1EF9D59142D6D370470000DC
:100330000023002400250026103A28BF78C1FBD8EE
:10034000520728BF30C148BF0B607047642900F0D6
:100350002781782900F06081002070471FB51EF0CA
:10036000E3F99DE8030000F077FC00F011FB1FBDEE
:1003700010B5002000F0FEFB10BD00F0DDFC1146C2
:10038000FFF7ECFF1AF054FF00F015FD03B4FFF780
:10039000EFFF03BC1AF03DFF2C4B19680868B0E86A
:1003A000F04F80F30988BFF36F8F4FF0000080F3A8
:1003B000118870470000000008480068006880F35A
:1003C00008884FF0000080F3148862B661B6BFF36E
:1003D0004F8FBFF36F8F00DF00BF00BF08ED00E05D
:1003E000DFF80C00016841F470010160704700BF44
:1003F00088ED00E0EFF30980BFF36F8F134B1A68AD
:100400001EF0100F08BF20ED108A20E9F04F106099
:1004100009B44FF0500080F31188BFF34F8FBFF342
:100420006F8F1CF0FBF84FF0000080F3118809BCBF
:1004300019680868B0E8F04F1EF0100F08BFB0EC64
:10044000108A80F30988BFF36F8F70474000002443
:10045000EFF30580704700000948804709480047CE
:10046000FEE7FEE7FEE7FEE7FEE7FEE7FEE7FEE764
:10047000FEE7FEE704480549054A064B70470000C1
:1004800031690090990200904879012448B901240B
:100490004899012448990124704753EA020C00F05E
:1004A00069802DE9F04B4FF00006002B1FBFB3FA17
:1004B00083F503FA05F424FA05F65E4012BF1643ED
:1004C000B2FA82F502FA05F4C5F120051EBF22FA40
:1004D00005FC44EA0C04203556EA044C4FEA144467
:1004E00018BF641C4FF000084FF00009904271EBF8
:1004F000030C39D3002919BFB1FA81F701FA07F6C5
:10050000B0FA80F700FA07F6C7F120071EBF20FAFD
:1005100007FC46EA0C062037B6FBF4FCA7EB050700
:10052000103F07F01F0BCBF120060CFA0BFB2CFA47
:1005300006F644BFB3460026202FA4BF5E464FF008
:10054000000B5BEA060C08BF4FF0010B19EB0B091F
:10055000ABFB027C48EB0608C01B06FB02CC0BFB86
:1005600003CC71EB0C01C1E70B46024641464846FD
:10057000BDE8F08B13B54FF000004FF00001AFF372
:100580000080BDE81C4070470FB4044910B503AAB1
:10059000029800F0DDFA10BC5DF814FB3000002476
:1005A0002DE9F0410646002410687529314616A54C
:1005B00010D0AFF30080002802DA404213A507E014
:1005C00031688A0701D512A502E0490704D511A5B3
:1005D000012401E0AFF3008000210A2206F1240784
:1005E00009E0B0FBF2FCB0FBF2F302FB1C00303080
:1005F00078541846491C0028F3D123462A46304631
:10060000BDE8F04100F032BA000000002D0000000B
:100610002B0000002000000070B504460D46214666
:100620001068AFF300802188090502D50F4A7A448B
:1006300002E00E4A7A440E32002104F1240305E060
:1006400000F00F060009965D5E54491C0028F7D1A2
:1006500020780023000704D5702D02D009B10223B1
:1006600011322046BDE8704000F000BAEEE3010010
:100670002DE9F05F894604464FF0000ADFF874B1B7
:10068000FB44C0F820A02046E1688847002874D0C9
:10069000252806D0D4E901219047206A401C206219
:1006A000F1E700265F462046E16888472028054696
:1006B00007DB312D05D2781910F8200C08B106435C
:1006C000F1E7B00701D526F00406C4F81CA0002706
:1006D000C4F818A02A2D09D028461AF093FD38B383
:1006E00004EB8708303DC8F8185019E059F8041B8E
:1006F000204604EB87029161E1688847012F054697
:1007000018D1E069002820DA26F020061DE0D8F88C
:10071000180000EB800005EB40003038C8F81800E6
:100720002046E168884705461AF06CFD0028EED1A6
:10073000012F0AD02E2D08D12046E16888477F1C62
:100740000546022F46F02006C4DBA069002803DA24
:10075000404246F00106A061F00701D026F01006E5
:100760006C2D0BD0682D09D04C2D39D06A2D35D089
:10077000742D35D07A2D33D016E038E0E1682F465D
:1007800020468847B842054609D16C2F26D04FF441
:100790008060E168064320468847054604E06C2FE8
:1007A0001AD04FF4807006430DB3A5F1410019280B
:1007B00002D8203546F400664A462946204626607F
:1007C0004E46FFF7C3FD80B101280BD0F61D26F081
:1007D000070000F1080956E74020E4E78020D8E749
:1007E0000020D6E706F104094DE7284652E7206AC3
:1007F000BDE8F09FC4E3010010B5002000F0DBF974
:10080000FFF7B6FDBDE8104001201AF002BD2DE94A
:10081000F041074615460E46102000F0D1F80400BE
:100820000AD06760C4E9026500F0C6F8016821607B
:1008300004600020BDE8F0810120FBE7032A40F2BC
:10084000308010F0030C00F0158011F8013BBCF172
:10085000020F624498BF11F801CB00F8013B38BF8A
:1008600011F8013BA2F1040298BF00F801CB38BF98
:1008700000F8013B11F0030300F02580083AC0F0B6
:10088000088051F8043B083A51F804CBA0E808105E
:10089000F5E7121D5CBF51F8043B40F8043BAFF391
:1008A0000080D20724BF11F8013B11F801CB48BFEB
:1008B00011F8012B24BF00F8013B00F801CB48BF21
:1008C00000F8012B704710B5203AC0F00B80B1E85A
:1008D0001850203AA0E81850B1E81850A0E8185075
:1008E000BFF4F5AF5FEA027C24BFB1E81850A0E87E
:1008F000185044BF18C918C0BDE810405FEA827C98
:1009000024BF51F8043B40F8043B08BF7047D207AE
:1009100028BF31F8023B48BF11F8012B28BF20F84F
:10092000023B48BF00F8012B704702F0FF0343EA87
:10093000032242EA024200F04EB94FF0000200B535
:10094000134694469646203922BFA0E80C50A0E8F2
:100950000C50B1F12001BFF4F7AF090728BFA0E8A0
:100960000C5048BF0CC05DF804EB890028BF40F86C
:10097000042B08BF704748BF20F8022B11F0804FAE
:1009800018BF00F8012B7047704770477047000090
:1009900070B5064C7C44064D7D4403E0206820443D
:1009A0008047241DAC42F9D170BD0000AC7C210011
:1009B000B87C21007047000000487047FCEC002420
:1009C00070B5064600F02CF9056806F10B0020F022
:1009D0000704B4429CBF002070BD2B466A68BAB1C0
:1009E0001068A04210D304F1080188423CBF50684F
:1009F000586007D35168101941601168091B0160E4
:100A000058601460101D70BD13465268002AE7D16B
:100A10002146284600F00CF90028DED170BD70B5E3
:100A20000446051F00F0FCF80068002C14BF446861
:100A300070BD002C18BFAC423CBF20466468F8D3A0
:100A400001680A18AA4218BF456003D12A68054602
:100A50001144016028684119A1421CBF6C6070BD3F
:100A60006168696021680844286070BD2DE9F0471D
:100A70000D4699469246044600F12408016888060E
:100A800004D5E06921F01001216000E00120A842B6
:100A900001DD471B00E00027A1697A1902EB09007C
:100AA000081AA0612078C00602D42046AFF3008067
:100AB000002608E0D4E901211AF806009047206AD0
:100AC000401C761C20624E45F4DB2078C0060AD517
:100AD0002046AFF3008006E0D4E9012130209047A2
:100AE000206A401C2062381EA7F10107F4DC07E0F1
:100AF000D4E9012118F805009047206A401C2062C3
:100B0000281EA5F10105F3DC2046AFF30080207814
:100B1000000602D50220BDE8F0870120FBE70000B7
:100B200001694A1C02610878704700B58FB0CDE9B1
:100B300001310021059105497944CDE903101146A1
:100B40006846FFF795FD0FB000BD0000E5FFFFFF11
:100B5000074B70B50D467B44FFF7E7FF0446284678
:100B600000F0B0F810B14FF0FF3070BD204670BDFE
:100B7000BFA601002DE9F0410646FFF71DFF8046A4
:100B8000454613E016B1E068B0420ED120682860F7
:100B9000D4E90101D8F8007088472046FFF73FFFED
:100BA000D8F80000B842EBD100E025462C68002CB4
:100BB000E8D1BDE8F08110B500F08EF8BDE8104036
:100BC00000F084B810B500F09FF8BDE8104000F0C8
:100BD0007DB84FF000020429C0F0128010F0030C21
:100BE0003FF4ADAECCF1040CBCF1020F18BF00F81D
:100BF000012BA8BF20F8022BA1EB0C01FFF79FBE31
:100C00005FEAC17C24BF00F8012B00F8012B48BF2C
:100C100000F8012B7047000000487047C4EC002426
:100C200000487047CCEC002470477047704770470D
:100C300038B504460A4600206946AFF30080002814
:100C400008BF38BD02460099204600F09AF80120FE
:100C500038BD012000F0D1B8F8B5AFF300800546EB
:100C600000200C46102000BF0646A819A0420DD94E
:100C7000324669460020AFF30080070008BF00F04D
:100C8000BCF80098A04218BF0546C419FFF7C8FF7A
:100C900005600746F01D20F007004619284600F0C1
:100CA0000AF8B44208BFF8BDA21B31463868BDE857
:100CB000F84000F066B800210160C0E901107047FB
:100CC00010207047007B00F080007047002801D0A2
:100CD0001AF09FBA7047000010B5002102A000F082
:100CE00073F8012010BD0000534947414252543A65
:100CF0002041626E6F726D616C207465726D696EF9
:100D00006174696F6E00000010B5002102A000F050
:100D10005BF8012010BD00005349475056464E3A3B
:100D20002050757265207669727475616C20666EEC
:100D30002063616C6C6564007546FFF76DFFAE461D
:100D400005006946534620F00700854618B020B5D7
:100D5000FFF790FBBDE820404FF000064FF0000782
:100D60004FF000084FF0000B21F00701AC46ACE853
:100D7000C009ACE8C009ACE8C009ACE8C0098D46C0
:100D80007047034640688C46002818BF88423CBF25
:100D900003464068F8D318681844884207D00CF11D
:100DA000030020F00700001D411A521A0146081DD9
:100DB0000A60FFF734BE10B50446AFF3008020464A
:100DC000BDE81040FFF7E2BA70B505460C460A20B0
:100DD00000E06D1C1AF01EFA35B128780028F8D111
:100DE00002E0641C1AF016FA14B120780028F8D139
:100DF000BDE870400A201AF00DBA10B500F004F8F2
:100E0000BDE81040FFF762BF10B5012805D00021F2
:100E100003A0FFF7D9FF012010BD09A1F8E70000EA
:100E200053494752544D454D3A204F7574206F66D3
:100E30002068656170206D656D6F7279000000003B
:100E40003A2048656170206D656D6F727920636F1F
:100E5000727275707465640070B53A490546006831
:100E6000884202D0384A904202D1D1F8080302E009
:100E70003648D0F8080310F4403F11D003F0BCFB13
:100E800004466868B0F5803F06D0B0F5003F03D057
:100E9000B0F5403F27D101E0000C18E0A40822E0A3
:100EA00000214FF4002002F011FC04466868810321
:100EB000890B18D181140C2915D2DFE801F0140632
:100EC00006060606060B0D0F1113800C4000B4FB3E
:100ED000F0F408E0240906E0640904E0A40902E053
:100EE000E40900E0240A01F083FE41F20301884294
:100EF00008D8174884422868816813D821F4807183
:100F0000816070BD13496008884204D828688168F0
:100F100021F44071F4E71049884206D828688168B6
:100F200021F4407141F48071EAE70C498842286855
:100F3000816804D821F4407141F40071E0E741F484
:100F40004071DDE7002002400021024000600258AD
:100F5000002D3101105E5F0020BCBE0040787D0195
:100F600070B504460068816811F0010F40D18168B6
:100F7000204A11422DD18168D5432940491C816006
:100F800001F03CFE1C49064620681C4B884201D0FB
:100F9000984201D11A4A00E01A4A9268984202F037
:100FA0001F0200D0014681421DD0E2B120E08168DD
:100FB00011F0010F03D181682940491C816001F0C3
:100FC0001DFE801B02280ED920680068C043C007A0
:100FD00009D0606D40F010006065A06D40F0010028
:100FE000A065012070BD20680168C943C907DED132
:100FF000002070BD3F000080002002400021024020
:101000000023024000630258014800F019BC0000B0
:1010100080040024FEE700002E4B002270B51C68FF
:1010200024F001041C602C4C2368C3F30B1501232E
:10103000A5F54066243E0ED02568C5F30B15A5F531
:101040004066273E07D02468C4F30B14A4F550650E
:10105000223D2BD017E0214A1268A2B9204A146819
:101060004FF08A45B5EB045F18D01468C4F30B0445
:10107000A4F58065833D11D01268C2F30B02A2F57E
:101080008064853C0AD0174A93609368002BFCD19A
:101090001060106888421BD0002070BD124A136097
:1010A0001368002BFCD1104A083AF1E70F4C246872
:1010B000C4F30B04A4F58065863D01D0104670BDD5
:1010C0000B4A13601368002BFCD1094A083ADFE78A
:1010D000012070BD002000E000ED00E0002004E0F1
:1010E0000010005C00300240084C0258F08F0046AF
:1010F000084C0246014800F0F1BF0000080500243A
:10110000704772B6FEE7F0B5D1E90843CD690A68C9
:10111000C2B10268254322F4F84213431D4305601F
:10112000D1E90125D1E903364C692A4345683343A7
:1011300089691A43EB0B2243DB030A431A434260DB
:101140000020F0BDD1E9012ED1E9036CD1E9057190
:1011500042EA0E0246EA0C0632433A430A43016869
:101160002A4322431A436FF30E010A430260E7E762
:10117000426943F6FE739A4342EA4101416100200D
:10118000704770B591E81C00C9686FF01F050669CB
:101190001A4305EB441444EA41210A4306EA454355
:1011A0001A430261002070BD2DE9F04F8B8A6FF069
:1011B0000F05264C4FF07F4BD1F80C9004EB0353F6
:1011C0006FF0FF044FEA042A1AB386684FEA093227
:1011D0001F4FA2F580521A433E4032438260D1E94C
:1011E00000278E68521E05EB07150F8A2A43C56833
:1011F00004EB06240E7E0AEB074322431A430BEB53
:1012000006610A4305F070431A43C2600020BDE83E
:10121000F08F91E804110F4E521E0F8A05EB08154E
:101220002A4304EB0C2C06EB09350E7E42EA0C0235
:101230002A4385680AEB074422431A430BEB0661F5
:101240000A4305F070431A438260DFE70000F0FFB5
:10125000FF0F0FFF00F0FFFF2DE9F04101241746BB
:101260000D46064605F0C6FE304600F02FF8C0B920
:1012700005F0C0FEBB2005F035FF012811D16E1E20
:10128000002409E0B44201D1002000E0012005F073
:1012900081FE3855641CE4B2AC42F3D305F0CEFEB7
:1012A000002405F0CBFE2046BDE8F08170B50D4668
:1012B000044605F09FFE204600F008F810B92846C5
:1012C00005F010FF05F0BAFE002070BD10B5044611
:1012D00005F090FEBA2005F005FF012807D1200A8D
:1012E00005F000FF012802D1E0B205F0FBFE00206E
:1012F00010BD704770477047704770472DE9F04741
:101300000F4690F850109AB0044601294FF000099A
:1013100015D00026DFF8F880012084F850001596DB
:101320001696216841450ED13A4D0095284604F0A5
:10133000C9FC8246206804F0C5FC60B10EE00220C2
:101340001AB0BDE8F087606D84F8506040F020006E
:1013500060650120F4E7BAF1000F09D0616D4FF02C
:10136000010941F020006065484684F85060E7E7D5
:1013700020684146884201D0A84201D1264800E0B9
:10138000264840F61F72D7F800C0254BBCF1000F6D
:1013900023D0D0F808C0D7F804802CF4404C4CEA95
:1013A000080CC0F808C0D4F800C08C4501D0AC458A
:1013B00007D18968AB6801F0010103F0010319430B
:1013C00002E0996801F001010029CDD1BD683968BA
:1013D000836829439343194317E0876827F44047FC
:1013E000876027688F4201D0AF4207D18968AB6818
:1013F00001F0010103F00103194302E0996801F0D3
:1014000001010029B0D1816891438160ACE70000FF
:1014100000200240002102400023024000630258E5
:10142000006002582DE9F84F4FF0000B0D46E54FD4
:101430000446CDF800B0D94690F85010DFF888A3E4
:10144000012907D0012684F85060206804F036FC9A
:1014500018B168E10220BDE8F88F286800280DDB8C
:1014600021680303CA6927D090FAA0F0B0FA80F08F
:1014700000F01F0006FA00F00243CA61D5E900122D
:101480004FF00C0C20681F23C1F384610CEA921CFE
:1014900002F01F02604493409140026B9A430A435A
:1014A0000263206804F00AFC8046206804F002FC15
:1014B00058EA000003D07FE0C0F38460D8E72068DA
:1014C000AA68296804F00AFCC0480068B6EB107FDF
:1014D00006D121686869C968C1F38201490008E042
:1014E0002068C168C906C1686869F5D501F01001B6
:1014F00049088840296904292ED023682A6803EB0B
:10150000810102F0F8420B6E024303F000401043E9
:101510000866697E22682869012917D05FF00001FA
:1015200002EB8000026E22F000420A430266297E2E
:1015300020682A6901290CD00021036902F01F02EA
:10154000914023F4F0420A43026135E04FF000413C
:10155000E6E74FF40061F0E720682978026E02F0B8
:10156000F842B2EB816F03D1016E21F000410166B8
:1015700020682978426E02F0F842B2EB816F03D105
:10158000416E21F00041416620682978826E02F0A8
:10159000F842B2EB816F03D1816E21F00041816688
:1015A00020682978C26E02F0F842B2EB816F03D155
:1015B000C16E21F00041C1662068816811F0010F01
:1015C00076D150F8C02F95F80CC0814B29680CF0EB
:1015D000180823FA08F3C1F3130C0B4022EA0C029B
:1015E0001A4302607B48E968814277D12868010389
:1015F0001BD090FAA0F1B1FA81F1491C01F01F0152
:1016000009294FEA003131D8002911D090FAA0F110
:10161000B1FA81F101F1010101F01F0106FA01F6B1
:1016200009D100BFC0F3846109E0C0F38461E4E73D
:10163000C0F38461EEE790FAA0F1B1FA81F101F113
:10164000010101F01F0146EA816102D1C0F384600B
:1016500003E090FAA0F0B0FA80F000F1010000F091
:101660001F0000EB400041EA005133E000290ED09A
:1016700090FAA0F1B1FA81F101F1010101F01F012D
:1016800006FA01F606D100BFC0F3846106E0C0F39C
:101690008461F1E790FAA0F1B1FA81F101F1010161
:1016A00001F01F0146EA816103D1C0F3846004E0C8
:1016B0003FE090FAA0F0B0FA80F0474A00F1010054
:1016C00000F01F0000EB400002EB005041EA000177
:1016D00041F00071AA68206804F000FB2E68002E1B
:1016E00027DA3E4A20683E49DFF8F8C0904201D030
:1016F000B84201D10B4600E063469B68904203F07C
:10170000E07301D0B84209D19568D7F8088005F098
:10171000010508F0010845EA080503E0DAF8085079
:1017200005F001054DB1616D4FF0010941F0200058
:101730006065484684F850B08DE62B4DAE421CD112
:101740001D021AD45045F4D1904202D0B84200D0C4
:1017500061468A6843F4000022F0E07202438A6026
:10176000234922480968B1FBF0F04000801C00E0EA
:10177000401E00900028FBD1DBE71E4DAE420CD18D
:10178000DD010AD45045D4D1904202D0B84200D0F5
:1017900061468A6843F080700EE0174DAE42C8D1B2
:1017A0005D02C6D45045C4D1904202D0B84200D0A8
:1017B00061468A6843F4800022F0E07202438A6046
:1017C000B7E7000000210240006002580010005CF2
:1017D000FFFF0F000000FF47000020FE0020024036
:1017E0000023024000630258000084CB400D030038
:1017F0001C000024000052C70000B8CF10B50B4AEF
:101800000168914210D100F018F800EE100A084863
:101810000849B8EE400A81ED000A0068002803D0AC
:10182000BDE8104019F020BF10BD000000200240AC
:10183000040000243C00002470470068006C7047DE
:101840002DE9F05F0446006806684568DFF870829D
:10185000DFF870B2DFF87092404501D0484501D101
:10186000584600E09948806800F01F07B0070ED581
:10187000A8070CD5606DC00603D4606D40F400600D
:1018800060652046FFF735FD21680220086070077B
:1018900001D5680703D4300737D5280735D5606DE3
:1018A000C00603D4606D40F400706065206804F0E9
:1018B0000DFA20B32068484501D1424600E00246B7
:1018C000824208D03FB1052F05D0092F03D04845EB
:1018D00003D1414602E0C16801E00146C9688904BC
:1018E0000DD4016809070AD504F0E8F958B3606D12
:1018F00040F010006065A06D40F00100A06520463A
:10190000FFF77CFF21680C200860B00601D5A8060F
:1019100003D4700658D5680656D5606DC00603D44A
:10192000606D40F4005060652068C16C11F4C07FA8
:101930001AD000218A4604F0C9F9024620684845B9
:1019400014D1434613E02068416821F00C01416046
:10195000606D20F480706065606DC004CFD4606DF0
:1019600040F001006065CAE70121E3E703468342D6
:1019700008D03FB1062F05D0072F03D0484503D12B
:10198000414602E0C16801E00146C968BAF1000FB2
:1019900014D08B0102D58AB18A040FD40268520692
:1019A0000CD589020AD404F085F9E8B3606D40F0E3
:1019B00010006065A06D40F00100A0652046FFF7B3
:1019C00099FC21686020086030060BD5280609D5EF
:1019D000606D40F480306065204600F08DF921682C
:1019E00080200860F0050CD5E8050AD5606D40F44C
:1019F000003060652046FFF77FFC21684FF480705F
:101A00000860B0050CD5A8050AD5606D40F48020AB
:101A100060652046FFF771FC21684FF40070086094
:101A2000F00631D5E80600E00AE02DD5206BE8B1DC
:101A30002068EFB3404501D0484512D1584611E027
:101A40002068416821F060014160606D20F48050A1
:101A50006065606DC005B1D4606D40F001006065E7
:101A6000ACE71A48806800F4404050B1606D40F423
:101A700080606065A06D40F00200A0652046FFF721
:101A8000DBFE216810200860700517D5680515D5A4
:101A9000616D4FF4806041F480416165A16D41F05A
:101AA0000801A165216808602046BDE8F05F00E0FC
:101AB00001E0FFF720BCC0688007D6E7BDE8F09FD3
:101AC000002002400023024000210240006302582F
:101AD000F8B54FF0000604003546009602D0606D60
:101AE00010B107E00120F8BD204600F007F9A66517
:101AF00084F8506020688168C1F3407119B1816831
:101B0000704A1140816020688168C1F3007181B919
:101B100081686D4A114041F0805181606C496B4889
:101B20000968B1FBF0F0401C00E0401E0090002866
:101B3000FBD120688168C1F3007141B9616D012555
:101B400041F010016165A16D41F00101A16504F052
:101B5000B5F8616DC90600D420B1606D012540F073
:101B6000100093E0606D20F4807040F0020060652A
:101B70002068816811F0010F1FD1564A564B9042E0
:101B800001D0984207D191689E6801F0010106F0EA
:101B90000106314303E05149896801F0010161B94F
:101BA000904201D0984201D14D4800E04D488268F2
:101BB000616822F47C120A43826001F019F841F254
:101BC0000301884202D9A06810280CD0617D227FD1
:101BD000A368206B490341EA024118430843217F6F
:101BE00001290CD010E0607D227F216B400340EA88
:101BF000024241F01000104340F00C00EFE7218C4E
:101C0000394A02EB41410843616A29B1A26A01F4F1
:101C10007871014342EA01002168344BCA681A40D6
:101C20000243CA60206804F049F80646206804F0C0
:101C300041F830431DD1216844F20303267DE26A56
:101C4000C86842EA863298431043C86094F8380066
:101C500001281ED02068016921F00101016120687E
:101C6000626B016921F07041114301612046FFF769
:101C7000F3F8E068012820681CD0016B21F00F0107
:101C80000163606D20F0020040F0010060652846AD
:101C9000F8BD2068A28F164FD4E9101C154E07EB33
:101CA0000247A36C026941EA0C013B4332401943ED
:101CB0001143D3E7A269016B521E21F00F011143BA
:101CC000DEE70000C0FFFF5FC0FFFF7F400D0300A5
:101CD0001C00002400200240002102400060025845
:101CE00000230240006302580000FEFF03C0F0FF23
:101CF0000100FFFF1EF800FC70470000F0B5B1B016
:101D00000446C0216846FEF718FE20492068884234
:101D100039D10DF1080C02200C2480258CE831000B
:101D2000C0260590002329932027CDE906064FF40D
:101D300000226846CDE90873CDE9002301F02AFEB0
:101D400008B1FFF7DEF91248016841F02001016097
:101D5000006800F0200030900D480830016841F024
:101D600001010160006800F0010030904FF08070C8
:101D7000014603F045F800220721122001F050FA35
:101D8000122001F03FFA31B0F0BD00000020024007
:101D9000D84402582DE9F0415B4D044600685B4F82
:101DA000A84201D0B84201D1594900E05949896897
:101DB00001F01F0603F082FF18B102221046BDE8B1
:101DC000F08194F8500001280CD0012084F85000D4
:101DD0002046FFF7C5F802004FF0000104D084F858
:101DE0005010EBE70220EAE7636D40F6016C2068D3
:101DF00023EA0C03B84243F48073636501D12B4698
:101E000000E00346834200D01EB9636D23F48013C3
:101E10006365636DDB0404D5A36D23F00603A3653E
:101E200000E0A1651C23036084F85010206841681D
:101E300021F01C014160206908282068416802D017
:101E400041F0040101E041F008014160206B20B93C
:101E50002068416841F0100141602068B84201D11A
:101E6000294600E00146814220D0FEB1052E1DD05A
:101E7000092E1BD0616DB84241F48011616500D01C
:101E80000546E968890199D5616D236921F40051FE
:101E9000082B41F48051616541682BD021F040014D
:101EA00041602068416841F020012AE0C168890151
:101EB00019D5636D216923F40053082943F4805335
:101EC0006365416807D021F04001416020684168A6
:101ED00041F0200106E021F02001416020684168C6
:101EE00041F04001416020680B4B81681940091D99
:101EF000816063E721F0200141602068416841F082
:101F0000400141605AE700000020024000210240E9
:101F10000023024000630258C0FFFF7FF0B5044673
:101F2000C8074FF0000010D01E23012603F01F0742
:101F300006FA07F50D4201D15B1EF7D27AB1082AE5
:101F40000BD0102A06D0182A01D00120F0BD072B93
:101F5000FBD204E0082BF8D201E0102BF5D2236865
:101F6000596121688B6823F0180313438B60F0BD1F
:101F700010B5040010D0607F20B9002020772046E3
:101F800000F032F821790220607739B1D4E90212E9
:101F90002046FFF7C3FF48B1012010BD216811485A
:101FA00048612068816821F0180181606079A0B1E2
:101FB000216820690861012220686369816821F035
:101FC0006001194381602068A369816821F0800164
:101FD000194381606277002010BD21684FF0FF3007
:101FE000E8E70000B71DC10408B50068064988424B
:101FF00008D10648016841F400210160006800F43E
:102000000020009008BD0000004C0258E044025837
:1020100070470000F0B590F86020012A22D0C1EB93
:10202000C102012780F86070022380F8613000EB64
:102030008202284D138F168EB2F83CC0D46A1B055D
:10204000283244EA064643EA4C530A2C46EA030681
:102050000AD0092C08D0137B46EA036349B10B2C44
:102060001AD01DE00220F0BDD36803F07F43334354
:10207000F4E701684C6AAC431C434C620168136886
:102080008B6151680A2901D009291BD1D1680268E6
:1020900021F07F41916215E0118B0F4D43EA81439E
:1020A0000168CC69AC431C43CC61016813680B61C7
:1020B00051680A2901D0092904D1D168026821F0A8
:1020C0007F411162002180F8617080F8601008463D
:1020D000F0BD00000F0033FF0F003FFF2DE9F04778
:1020E0000446006800274FF004084FF001094668D5
:1020F0000568F10714D0E90512D5036823F480734D
:102100000360606E40F0010060662068C0F80890CF
:1021100084F8618084F86070616A09B1204688475C
:10212000B00615D5A80413D520682022036823F42F
:102130000053036020688260606E40F002006066B9
:1021400084F8618084F86070616A09B1204688472C
:10215000300715D5280513D520680822036823F415
:102160000063036020688260606E40F00400606677
:1021700084F8618084F86070616A09B120468847FC
:1021800070070CD568050AD52068026822F48062C1
:1021900002602068C0F80880204600F071F8B0079F
:1021A00013D5A80511D520680222036823F4007313
:1021B000036020688260606E606684F8619084F8D5
:1021C0006070216A09B120468847F00612D5E804FC
:1021D00010D52068016821F4805101602268102127
:1021E0009160616E616684F86190204684F8607049
:1021F000FFF70EFFBDE8F0872DE9F041040004D0A1
:1022000094F86100002518B107E00120BDE8F081D5
:10221000204684F8605000F035F8184E022084F80B
:1022200061000123D4E90010D4F81CC040F2071269
:102230000F6840EA0C003740384308602068A769FF
:10224000A168466B39439643314341632068E26895
:10225000016C6FF30F01114301642068218AA28A87
:10226000466B090541EA425126F44012114341638D
:10227000656684F861300020C8E70000BFFFF8FF02
:102280007047000008B500680B49884212D10B481E
:10229000016841F01001016000680022062100F091
:1022A000100000905A2000F0BBFFBDE808405A2003
:1022B00000F0A8BF08BD000000100052D44402582E
:1022C0002DE9F84F044600F099FC00903CB194F8D9
:1022D0003500022806D0802161650020E4E001205D
:1022E000BDE8F88FC74DC74EC6491835206830364F
:1022F000DFF81483DFF814938842DFF814A3DFF8C3
:1023000014B32ED0A8422CD0B0422AD0404528D0B9
:10231000484526D0504524D0584522D0BD4A1832D1
:1023200090421ED0BC4A90421BD0BB4A1832904209
:1023300017D0B94A3032904213D0B74A483290424F
:102340000FD0B54A603290420BD0B34A78329042F7
:1023500007D0B14A9032904203D0AF4AA83290429F
:1023600009D1026822F01E0202602068426922F050
:102370008002426103E0026822F00E0202602768D8
:102380008F4238464DD0A8424BD0B04249D040454C
:1023900047D0484545D0504543D0584541D09D4A47
:1023A000183290423DD09C4A90423AD09A4A183214
:1023B000904236D0984A3032904232D0964A4832D3
:1023C00090422ED0944A603290422AD0924A78327B
:1023D000904226D0904A9032904222D08E4AA83223
:1023E00090421ED08D4A90421BD08C4A14329042AB
:1023F00017D08A4A2832904213D0884A3C32904201
:102400000FD0864A503290420BD0844A64329042B8
:1024100007D0824A7832904203D0804A8C32974269
:1024200004D1206E026822F480720260754920682F
:10243000884228D0A84226D0B04224D0404522D09D
:10244000484520D050451ED058451CD07149183100
:10245000884218D07049884215D06F491831884297
:1024600011D06D49303188420DD06B4948318842D6
:1024700009D069496031884205D06749783188427E
:1024800001D065499031016821F0010101600EE041
:1024900000F0B4FB0099401A052808D92022626593
:1024A0000321002084F8351084F8340017E73868D9
:1024B000C007EDD1534A0121206890422ED0A84296
:1024C0002CD0B0422AD0404528D0484526D050458F
:1024D00024D0584522D04F4B183398421ED04E4B33
:1024E00098421BD04C4B1833984217D04A4B30338C
:1024F000984213D0484B483398420FD0464B603334
:1025000098420BD0444B7833984207D0424B9033DB
:10251000984203D0404BA833984208D194F85C709D
:102520003F23A06D07F01F07BB40836007E094F8CE
:102530005C30A06D03F01F0301FA03F343602068D1
:1025400090424DD0A8424BD0B04249D0404547D0F0
:10255000484545D0504543D0584541D02D4A1832C2
:1025600090423DD02C4A90423AD02B4A18329042A9
:1025700036D0294A3032904232D0274A48329042EF
:102580002ED0254A603290422AD0234A7832904297
:1025900026D0214A9032904222D01F4AA83290423F
:1025A0001ED01E4A90421BD01C4A1432904217D0B3
:1025B0001A4A2832904213D0184A3C3290420FD027
:1025C000164A503290420BD0144A6432904207D0DF
:1025D000124A7832904203D0104A8C3290420BD18A
:1025E000D4E919024260E06E30B1026822F48072D0
:1025F0000260D4E91C024260002084F8351084F89F
:1026000034006DE6100002405800024070000240A5
:1026100088000240A0000240100402400854025802
:102620002DE9F05F28B190F83510022904D08021FF
:1026300041650120BDE8F09F904C904B0168183C2B
:1026400018338E4ADFF83C92A1428D4CDFF838E215
:102650008E4FDFF83CB2DFF83CA28F4D8F4E31D069
:1026600091422FD099422DD0A1422BD0494529D05B
:10267000714527D0B94225D0DFF810C20CF1180CF3
:1026800061451FD0DFF808C2ACF1600C614519D07C
:10269000DFF8FCC1ACF1480C614513D0DFF8F0C1A4
:1026A000ACF1300C61450DD0DFF8E4C1ACF1180C91
:1026B000614507D0594505D0514503D0A94201D005
:1026C000B1422CD1DFF8B4C14FF0040880F8358056
:1026D000ACF1180C61451DD091421BD0994219D024
:1026E000A14217D0494515D0714513D0B94211D038
:1026F0006648183081420DD065486038814209D063
:1027000063484838814205D061483038814201D061
:102710005F481838086820F001000860ABE0D1F885
:1027200000C02CF00E08DFF854C1C1F80080ACF1F5
:10273000180C0168614527D0914225D0994223D0D9
:10274000A14221D049451FD071451DD0B9421BD0AF
:10275000DFF838C10CF1180C614515D0DFF830C135
:10276000ACF1600C61450FD0DFF824C1ACF1480C2E
:10277000614509D0DFF818C1ACF1300C614503D0D8
:10278000DFF80CC1ACF1180CD1F800C02CF0010C32
:10279000C1F800C0DFF8E4804FF0010C0168A8F137
:1027A0001808414546D0914244D0994242D0A142B6
:1027B00040D049453ED071453CD0B9423AD0334A29
:1027C0001832914236D0324A603A914232D0304A81
:1027D000483A91422ED02E4A303A91422AD02C4A81
:1027E000183A914226D0594524D0514522D0A942C9
:1027F00020D0B1421ED02A4A91421BD0284A14321E
:10280000914217D0264A2832914213D0244A3C32B2
:1028100091420FD0224A503291420BD0204A64326A
:10282000914207D01E4A7832914203D01C4A8C3222
:10283000914218D1016E0A6822F480720A6090F801
:102840005C20816D02F01F020CFA02F24A60D0E9AE
:1028500019124A60C16E31B10A6822F480720A60AE
:10286000D0E91C124A600022016D80F835C080F862
:10287000342001B188470020DCE600002800024037
:10288000580002407000024088000240A000024050
:102890007004024088040240A0040240B8040240D0
:1028A000085402582DE9F041B6B0142130A8FEF7C3
:1028B00044F83348016800295FD14FF00108C0F89F
:1028C0000080C0216846FEF738F8002012904FF0D3
:1028D00080710446CDE90010684601F05BF808B14C
:1028E000FEF70FFC2748016841F480510160006841
:1028F0000226032700F4805035904FF68370CDE90F
:10290000300621480C25CDE9324730A9349500F036
:1029100047F848F237103495CDE930061B4830A906
:10292000CDE9324700F03CF84CF203703495CDE924
:102930003006174830A9CDE9324700F031F84FF69C
:102940003F003495CDE93006124830A9CDE9324731
:1029500000F026F8CDF8C08030A9CDE931640E48EA
:10296000CDE9337500F01CF80C4830A9CDE930569C
:10297000CDE93247349500F013F836B0BDE8F08168
:1029800008000024D44402580010025800180258CD
:10299000000C02580014025800080258001C02588B
:1029A0002DE9F84F03247D4D00234FF001094FF02E
:1029B000B04B4FF00F0AE9E009FA03F73A4076D03E
:1029C0000E7906F00306012E01D0022E18D1D0F8A0
:1029D00008C04FEA430ECE6804FA0EF82CEA080C41
:1029E00006FA0EF646EA0C068660D0F804C00E79A8
:1029F0002CEA070CC6F300169E4046EA0C06466019
:102A00000E79F643B6070BD0C6684FEA43088F68C5
:102A100004FA08FC26EA0C0607FA08F73743C760F1
:102A20000E7906F00306022E12D1DE080F694FEA76
:102A3000437C00EB8606B646366A4FEADC6C0AFA3F
:102A40000CF807FA0CF726EA08063743CEF8207090
:102A50000F7906684FEA430807F0030704FA08FCF9
:102A600007FA08F726EA0C06374307604E6816F4A3
:102A7000403F1CD04A4E376847F00207376036683F
:102A80009F0706F00206009623F0030606F1B04603
:102A9000B6463F0FD6F80864DFF808810AFA07FC4B
:102AA000404526EA0C0603D14FF0000C41E06CE0F3
:102AB000DFF8F4C0604502D14FF0010C39E0DFF8D7
:102AC000ECC0604502D14FF0020C32E0DFF8E0C00C
:102AD000604502D14FF0030C2BE0DFF8D8C0604511
:102AE00002D14FF0040C24E0DFF8CCC0604502D1E5
:102AF0004FF0050C1DE0DFF8C4C0604502D14FF077
:102B0000060C16E0DFF8B8C0604502D14FF0070CA4
:102B10000FE0DFF8B0C0604502D14FF0080C08E0CC
:102B2000DFF8A4C0604502D14FF0090C01E04FF07E
:102B30000A0C0CFA07FC4CEA060CCEF808C44F68E5
:102B4000DBF80060FF0226EA020600D516435F4666
:102B5000CBF80060D1F804C0DBF804605FEA8C2C8D
:102B600026EA020600D516437E606E684F6826EAA4
:102B70000206BF0300D516436E602E684F6826EA32
:102B80000206FF0300D516432E605B1C0A6832FA6A
:102B900003F67FF411AFBDE8F88F00008000005805
:102BA000F444025800000258000402580008025879
:102BB000000C025800100258001402580018025865
:102BC000001C0258002002580024025800690840E6
:102BD00000D001207047426921EA02030A4043EA1B
:102BE0000241816170470AB1816170470904FBE7C6
:102BF00001480068000C70470010005C01488068C4
:102C000070470000100000240248816802781144D7
:102C10008160704710000024032010B500F020FBF5
:102C200001F030FD0F4A104914681368C4F3032201
:102C300003F00F038A5CC95C02F01F0201F01F0160
:102C4000D0400A4A20FA01F11160094908600F20BA
:102C500000F010F808B1012010BD00F0C1FA00200A
:102C600010BD00001844025890E701902000002495
:102C70001C00002410B5102804468AB02CD2002273
:102C80000146362000F0CCFA362000F0BBFA174897
:102C900004601748016841F010010160006809A94B
:102CA00000F010000890684601F078FC0598B0B17B
:102CB00001F0C4FC40000F4900220F4CB0FBF1F1C1
:102CC0000E4840F2E7330460C0E90332491EC0E910
:102CD000011202F043F928B101200AB010BD01F041
:102CE000ADFCE8E7054802F0DDF9F6E71400002442
:102CF000E844025840420F0000100040FC48002405
:102D00002DE9F041044690F8A00016460F46012830
:102D10001DD0012584F8A050022084F8A10006EB04
:102D2000860000EBC600342204EB80003830FDF74B
:102D3000CAFD32463946204602F0E6FF21680020EF
:102D40004D6284F8A15084F8A000BDE8F081022013
:102D5000FBE770472DE9F0410446006800274FF07B
:102D60000408856B466B690715D5710713D5426B4F
:102D700022F0040242632068C0F83C80D4F8A4002A
:102D800040F00100C4F8A40084F8A180204684F833
:102D9000A070FFF7DEFFA80716D5B00714D520688E
:102DA0000222436B23F0020343632068C263D4F81A
:102DB000A40040F00200C4F8A40084F8A1802046DA
:102DC00084F8A070FFF7C5FF05EA06004FF0010880
:102DD000C0070ED021684A6B22F001024A632168C5
:102DE000C1F83C8084F8A180204684F8A07000F0EF
:102DF00091F8280710D530070ED520680822436BBC
:102E000023F0080343632068C26384F8A18020464E
:102E100084F8A07000F094F9BDE8F0812DE9F0414C
:102E2000040004D094F8A100002518B107E00120A7
:102E3000BDE8F081204684F8A05000F0A3F83448A3
:102E4000022184F8A110012202CC8B6923F0704387
:102E50008B6194E84A001943E3681E4354F8043D2B
:102E600031439E693143996121688B6803408B60CF
:102E70002168A68AA7698B683B4343EA06438B60B7
:102E80002168CB680340CB602168A38B276ACE689A
:102E90003E4346EA0346CE6021680B6903400B615E
:102EA0002368A68CA76A1969394341EA064119616A
:102EB00021684B6903404B612068A38D266B4169F3
:102EC000314341EA03414161236894F8351094F895
:102ED0003600DE6A000406F07F46DE62236840EAC0
:102EE000012094F83460D96A31430143D9622068E3
:102EF000416B41F0060141632068816941F00101A5
:102F00008161C4F8A45084F8A120002090E700005B
:102F100000F800F010B5184C216800292AD0174994
:102F2000174A0B6C11888B4215D1518800F0E6F8D6
:102F30002068002290F86A10491C80F86A1080F816
:102F40007C200AF087FD20680DF06CFCBDE8104085
:102F500000200EF0EEBD00F0D1F824682068016A70
:102F600020468847012084F87C00BDE810400020FE
:102F70000EF0E1BD10BD0000600200240010005002
:102F8000CC0000242DE9F043B7B00446142130A84A
:102F9000FDF7D3FCC0216846FDF7CFFC50492068FF
:102FA00088427CD10AAF4FF4A5730225192287E825
:102FB0002C00002110910A260C4640040D95CDE905
:102FC0000E61CDE900016846119100F0E3FC08B103
:102FD000FEF797F84348016841F008010160006876
:102FE00000F0080035903F48001F016841F48061FF
:102FF0000160016801F480613591016841F0400190
:103000000160016801F040013591016841F40071EF
:103010000160016801F400713591016841F080019F
:103020000160016801F080013591016841F480710F
:103030000160006832AA032600F480703590FE20FB
:10304000CDE930050E27284882E8D00030A9FFF7E7
:10305000A7FC4FF480614FF0090832AA2348CDE95C
:10306000301530A982E85001FFF79AFC32AA4FF2DE
:10307000FF30CDE930051E4830A982E8D000FFF7C7
:103080008FFC4FF40040DFF86C9032AACDE9300598
:1030900030A9484682E8D000FFF782FC00E01CE03F
:1030A0004FF4704032AACDE93005134830A982E8C8
:1030B000D000FFF775FC1021484632AACDE9301543
:1030C00030A982E85001FFF76BFC0022062158204E
:1030D00000F0A6F8582000F095F837B0BDE8F0836E
:1030E00000100050E444025800280258001802580A
:1030F00000240258001C02580020025870B590F8B5
:10310000A020012A18D00D4D012380F8A030022202
:1031100080F8A120002450F8A02B566B26F0010661
:103120005663296450F8A01C4A6B42F001024A63BE
:1031300043700470204670BD022070BD0010005026
:1031400070470000154BF0B5083B427813491A60F0
:103150000B680A1F23F001030B6043681360057BB3
:10316000C67A827A437B2D07847B45EA0665C77B56
:1031700090F809C0067A90F800E045EAC24040EABB
:10318000834040EA444040EA074040EA0C2040EADD
:10319000460040EA0E000860F0BD0000A0ED00E02F
:1031A000BFF35F8F044800210368034A23F4803390
:1031B000036070321160704724ED00E0074A40F070
:1031C0000100064970321060086840F480300860E1
:1031D000BFF34F8FBFF36F8F7047000024ED00E007
:1031E000074882B0016841F00201016000680022D6
:1031F0000F2100F002000090901E02B000F010B805
:10320000F4440258002809DB410900F01F0289003C
:10321000012001F1E0219040C1F800017047000059
:103220000E4BF0B41B680D46C3F30223C3F107062F
:10323000042E00D90426191D072901D2002300E01D
:10324000DB1E012404FA06F19C40491E2940641E3D
:10325000994014402143F0BC17F033BF0CED00E05F
:10326000064900F0070210B54FF6FF040868044B4A
:10327000204040EA02201843086010BD0CED00E039
:103280000000FA05134970B50A68D243520705D504
:10329000096801F00701814213D118E00A6822F0A1
:1032A000070202430A60FFF7A9FC0A4D4FF47A7641
:1032B0000446083D07E000BFFFF7A0FC001BB0423A
:1032C00001D9012070BD2868C0438004F4D40020D7
:1032D00070BD00000C48025810B501F08DF9054989
:1032E0000968054AC1F30211515C01F01F01C84091
:1032F00010BD00002044025890E701904A4930B5C3
:10330000494C0B1D0A680C3409681D68246802F0DA
:10331000030305F00102C1F30511C4F3CC04002935
:1033200014FB02F200EE102AF8EE400A76D0414A71
:103330009FED3E1ADFED3E1AB7EE000A23B1012BD6
:103340005AD0022B18D15CE0374C283C23689B06EE
:1033500012D5394B246801EE901A1168C4F3C104E8
:10336000F8EE612AE34001EE903AC1F30801F8EE6D
:10337000611A81EEA22A07E002EE101A1168F8EE37
:10338000422A81EEA22A45E001EE901A1168F8EE79
:10339000611A40EE811A71EE800A62EE200AC1F3D2
:1033A000462101EE101AB8EE411A31EE001AC0EEB5
:1033B000811ABCEEE11A80ED001A1168C1F30641D2
:1033C00001EE101AB8EE411A31EE001AC0EE811A61
:1033D000BCEEE11A80ED011A1168C1F3066101EE3D
:1033E000101AB8EE411A31EE000A80EE801ABCEED7
:1033F000C10A80ED020A30BD01EE901ADFED0F2AFE
:1034000003E001EE901ADFED0E2A1168F8EE611A62
:1034100082EEA12AC1F30801B6E7FFE700210160AF
:103420004160816030BD000028440258000000392E
:103430000024744C304402580090D0030024744A95
:1034400020BCBE4B494930B5484C0B1D0A681434AA
:1034500009681D68246802F00303C5F30012C1F374
:103460000531C4F3CC04002914FB02F200EE102A4B
:10347000F8EE400A75D03F4A9FED3D1AB7EE000ABC
:103480006BB1DFED3D1A012B01D0022B64D002EEAF
:10349000101A1168F8EE422A81EEA22A21E0334C7C
:1034A000283C23689B0612D5344B246801EE901A01
:1034B0001168C4F3C104F8EE612AE34001EE903ACA
:1034C000C1F30801F8EE611A81EEA22A0BE001EEC9
:1034D000901ADFED2B2A00BFF8EE611A116882EE18
:1034E000A12AC1F3080101EE901A1168F8EE611AE1
:1034F00040EE811A71EE800A62EE200AC1F3462185
:1035000001EE101AB8EE411A31EE001AC0EE811A1F
:10351000BCEEE11A80ED001A1168C1F3064101EE1C
:10352000101AB8EE411A31EE001AC0EE811ABCEE44
:10353000E11A80ED011A1168C1F3066101EE101A5B
:10354000B8EE411A31EE000A80EE801ABCEEC10AD4
:1035500080ED020A30BD04E001EE901ADFED092A89
:10356000BAE70021016041608160F3E72844025816
:1035700000000039384402580024744A0090D003F7
:103580000024744C20BCBE4B494930B5484C0B1D3F
:103590000A681C3409681D68246802F00303C5F337
:1035A0000022C1F30551C4F3CC04002914FB02F23C
:1035B00000EE102AF8EE400A75D03F4A9FED3D1A02
:1035C000B7EE000A6BB1DFED3D1A012B01D0022BE3
:1035D00064D002EE101A1168F8EE422A81EEA22A97
:1035E00021E0334C283C23689B0612D5344B2468D9
:1035F00001EE901A1168C4F3C104F8EE612AE340A9
:1036000001EE903AC1F30801F8EE611A81EEA22AA8
:103610000BE001EE901ADFED2B2A00BFF8EE611AE5
:10362000116882EEA12AC1F3080101EE901A116817
:10363000F8EE611A40EE811A71EE800A62EE200AFD
:10364000C1F3462101EE101AB8EE411A31EE001A0C
:10365000C0EE811ABCEEE11A80ED001A1168C1F3C8
:10366000064101EE101AB8EE411A31EE001AC0EE12
:10367000811ABCEEE11A80ED011A1168C1F30661EE
:1036800001EE101AB8EE411A31EE000A80EE801AEF
:10369000BCEEC10A80ED020A30BD04E001EE901AD2
:1036A000DFED092ABAE70021016041608160F3E79C
:1036B0002844025800000039404402580024744A4B
:1036C0000090D0030024744C20BCBE4B2DE9F04F79
:1036D000AC4A0546DFF8A8A280F48070DFF8AC920F
:1036E00089B01311AA4C0843A748AAF104064FF069
:1036F000805C4FF000582CD085F400770F4357D0F2
:10370000DFF87CB285F480670F430BF1080B61D0C2
:1037100085F400670F4374D085F480570F436ED053
:1037200085F400570F434FF480394FF4003E67D0C3
:1037300085F400270F4371D085F480370F436ED096
:1037400085F480460E436BD085F400420A4368D06E
:103750002AE0DAF8001001F00701052924D2DFE899
:1037600001F075BC7D25B10006A8FFF7C7FD0798DD
:1037700009B0BDE8F08F6846FFF764FE0098F7E7F0
:1037800003A8FFF701FF0398F2E72068C0F3C10028
:1037900022FA00F0ECE72268D20571D561456FD1BD
:1037A0001846E5E74145E3D00020E1E74846DFE77A
:1037B000DAF8001001F4E07180294FD004DC002910
:1037C00044D04029F0D188E0C029EFD0B1F5807F06
:1037D000EAD177E0DBF8001001F46001B1F5800F69
:1037E0003CD004DC91B3B1F5001FDDD175E0B1F53B
:1037F000C00FDBD0B1F5000FD6D163E001E018E0D7
:1038000030E0DBF8001001F0E061B1F1007F25D07D
:1038100008DCD9B1B1F1807FC6D15EE049E06CE04F
:1038200079E09CE0B1F1407FC0D0B1F1806FBBD1B5
:1038300048E0DAF8001001F4E041B1F5005F0DD086
:1038400005DC19B1B1F5805FAED146E094E0B1F589
:10385000405FABD0B1F5804FA6D133E02068800047
:10386000A2D58DE7DAF8001001F4E021B1F5403F70
:103870006CD006DC61B149457AD0714594D157E0EE
:1038800037E0B1F5802F65D0B1F5A02F8CD10CE0D9
:1038900000F0D4FE6CE76846FFF7D4FD019867E7B7
:1038A00003A8FFF771FE049862E721688903F1D449
:1038B0007AE7DBF8001011F440310ED0494510D002
:1038C0007145F5D13168256801F040516D077FF5EC
:1038D00062AF00297FF45FAF57E720680001E7D5AA
:1038E00049E720688000E3D503A8FFF74DFE05985F
:1038F0003EE722689203DBD554E7306810F480304D
:103900003AD04845D4D120680001D1D56846FFF7A8
:1039100099FD02982CE7DBF8001001F0E041B1F1CD
:10392000405F13D008DC71B1614521D04145BFD162
:1039300020688000B4D437E7B1F1804F0AD0B1F1EC
:10394000A04FB2D030E7FFF7C7FC11E7206840076F
:10395000AED51AE72068C005AAD521E708E0DAF855
:10396000001011F04051A0D0614505D041459FD1D4
:10397000206800018FD417E72068800198D5F3E60E
:10398000504402580090D00340787D010080BB0075
:10399000004402582DE9FE4F0546DFF8E48350F855
:1039A000081B0024F64FC943019005F12800264664
:1039B00008F12408009008011DD4A86E50B1B0F59C
:1039C000801F0CD0B0F5001F0ED0B0F5401F1ED0E8
:1039D00001240FE0386840F40030386017E00198A7
:1039E000022102F0CDFD03E00098022102F058FE12
:1039F00004000CD026462888C043C00523D4A86DF7
:103A000005281ED2DFE800F00C11161B1B00AA6E61
:103A1000D8F8001021F440111143C8F80010EAE76B
:103A2000386840F40030386009E00198002102F065
:103A3000A7FD03E00098002102F032FE044674B1B5
:103A400000E0012426462888C043800528D4E86D7C
:103A500080281ED00CDC90B140280ED114E0AA6D55
:103A6000D8F8001021F007011143C8F80010EAE768
:103A7000C02813D0B0F5807F10D001240FE0386843
:103A800040F40030386009E00198002102F078FD30
:103A900003E00098002102F003FE04469CB1264694
:103AA0002888DFF8DC92C04309F12C0940052CD4AA
:103AB000D5F8A800B0F5800F20D00DDCA0B1B0F58E
:103AC000001F0FD115E0EA6DD8F8001021F4E07165
:103AD0001143C8F80010E3E7B0F5C00F13D0B0F5FC
:103AE000000F10D001240FE0386840F40030386037
:103AF00009E00198002102F043FD03E00098002155
:103B000002F0CEFD04467CB126462888C04300055D
:103B10002DD4D5F8AC00B0F1007F21D00EDCA8B1D7
:103B2000B0F1807F10D116E0D5F8A820D9F80010A8
:103B300021F460011143C9F80010E6E7B0F1407FBD
:103B400013D0B0F1806F10D001240FE0386840F43A
:103B50000030386009E00198002102F011FD03E017
:103B60000098002102F09CFD044674B126462868A6
:103B7000C04380011FD4E86CD8B110280FD0202892
:103B800012D0302815D0012414E0D5F8AC20D9F893
:103B9000001021F0E0611143C9F80010E7E7386830
:103BA00040F40030386004E00198022102F0E8FCA3
:103BB000044674B126462888C043C0042BD4286E1E
:103BC000B0F5005F20D00DDCA0B1B0F5805F0FD163
:103BD00015E06B48EA6C2030016821F03001114398
:103BE0000160E8E7B0F5405F13D0B0F5804F10D02A
:103BF00001240FE0386840F40030386009E0019893
:103C0000002102F0BDFC03E00098002102F048FD15
:103C100004468CB126462888C043800429D4686EA7
:103C2000B0F5403F23D010DC08B3B0F5803F14D08E
:103C3000B0F5003F0FD115E02A6ED8F8001021F43E
:103C4000E0411143C8F80010E5E7B0F5802F0ED031
:103C5000B0F5A02F0BD001240AE00198012102F059
:103C60008FFC03E00098012102F01AFD044694B194
:103C700026462888C04340042AD4D5F8B000B0F1C5
:103C8000405F23D010DC08B3B0F1805F14D0B0F1F6
:103C9000005F0FD115E06A6ED8F8001021F4E02122
:103CA0001143C8F80010E4E7B0F1804F0ED0B0F136
:103CB000A04F0BD001240AE00198012102F060FC22
:103CC00003E00098012102F0EBFC044674B12646A3
:103CD0002888C04300041FD4286FD8B1B0F1805F9A
:103CE0000ED0B0F1005F10D0012414E0D5F8B02060
:103CF000D9F8001021F0E0411143C9F80010E7E7BE
:103D0000386840F40030386004E00198012102F086
:103D100037FC044674B126462868C043C0011ED44F
:103D2000A86CD0B101280ED0022811D0032814D0DD
:103D3000012413E02A6FD8F8001021F040511143FC
:103D4000C8F80010E8E7386840F40030386004E054
:103D50000198022102F014FC0446ACB12646286802
:103D6000DFF81CB0C043ABF11C0B400252D4054835
:103D7000016841F480710160FEF740FF824611E066
:103D80002C44025800480258FA48AA6C016821F0F5
:103D9000030111430160E2E7FEF730FFA0EB0A00E8
:103DA000642835D8F4480068C005F5D58CBBDFF829
:103DB000C4A3B5F8B4100AF1240ADAF8000001F43B
:103DC000407100F44070884211D0DAF80010DAF83F
:103DD000002021F4407142F48032CAF80020DAF861
:103DE000002022F48032CAF80020CAF80010D5F86A
:103DF000B400B0F5807F1AD1FEF700FF029012E008
:103E0000FEF7FCFE0299411A41F2883081420AD93C
:103E1000032426462878DFF85CA3C0430AF1080A89
:103E2000C00721D03CE0DAF800008007E8D5D5F8DB
:103E3000B410C1F30120032858460DD0016821F4C5
:103E40007C510160B5F8B420DAF80010C2F30B021F
:103E50001143CAF80010DDE7C84A036802EA1112EC
:103E600023F47C511143ECE7E86F182816D005DCE9
:103E7000A0B1082808D0102804D10AE020280DD0CD
:103E800028280BD001240AE00198012102F078FBD8
:103E900003E00098012102F003FC044664B12646C9
:103EA0002878C04380071ED4A86F062819D2DFE8FF
:103EB00000F0160C11161616EA6FDAF8001021F051
:103EC00038011143CAF80010EAE70198012102F015
:103ED00057FB03E00098012102F0E2FB04467CB1AD
:103EE00000E0012426462878C04340071FD4D5F8B7
:103EF0009400062819D2DFE800F0160C11161616E9
:103F0000AA6FDAF8001021F007011143CAF8001077
:103F1000E9E70198012102F033FB03E00098012159
:103F200002F0BEFB0446A4B100E001242646287836
:103F3000C04380062BD4D5F89000B0F1405F24D068
:103F400011DC10B3B0F1805F15D0B0F1005F10D17B
:103F500016E0D5F89420D9F8001021F0070111439C
:103F6000C9F80010E3E7B0F1804F0ED0B0F1A04FD8
:103F70000BD001240AE00198002102F001FB03E0CC
:103F80000098022102F08CFB044694B12646287862
:103F9000C04340062BD4D5F89C00B0F5406F24D028
:103FA00011DC10B3B0F5806F15D0B0F5006F10D1F3
:103FB00016E0D5F89020DAF8001021F0E041114326
:103FC000CAF80010E3E7B0F5805F0ED0B0F5A05F4F
:103FD0000BD001240AE00198002102F0D1FA03E09D
:103FE0000098022102F05CFB044694B12646287832
:103FF000C04300062BD4D5F8A000B0F5C04F24D0A4
:1040000011DC10B3B0F5005F15D0B0F5804F10D1C2
:1040100016E0D5F89C20D9F8001021F4E0511143A6
:10402000C9F80010E3E7B0F5004F0ED0B0F5204F0F
:104030000BD001240AE00198002102F0A1FA03E06C
:104040000098022102F02CFB044654B12646287841
:10405000C04300071ED4D5F88400B0F5805F0AD0B5
:104060000FE0D5F8A020D9F8001021F460411143E9
:10407000C9F80010EBE70098022102F011FB00B133
:104080000126D5F88420DAF8001021F440511143BC
:10409000CAF800102878C043C00613D4D5F8980099
:1040A000B0F5807F05D10098022102F0F9FA00B145
:1040B0000126D5F89820D9F8001021F44071114359
:1040C000C9F800102868C043000316D4D5F8A4002E
:1040D00038B1B0F5803F09D0B0F5003F0BD00124D6
:1040E0000AE00198002102F04BFA03E00098022157
:1040F00002F0D6FA04468CB126462868C043400335
:1041000022D4D5F88800B0F5801F11D0B0F5001F7B
:1041100013D0B0F5401F15D0012414E0D5F8A42029
:10412000D9F8001021F440311143C9F80010E4E738
:10413000386840F40030386004E00098012102F053
:10414000AFFA04465CB126462868C043C00323D4B6
:10415000286DA8B1B0F5803F17D001241BE0D5F839
:104160008820DAF8001021F440111143CAF8001039
:10417000EAE700004C44025800480258CFFFFF0015
:10418000386840F40030386004E00198022102F001
:10419000F7F90446E4B126462868C043800005D4F8
:1041A0000098022102F07CFA00B101262868C04381
:1041B00080031BD4D5F88000B0B1B0F5807F0FD05C
:1041C000B0F5007F10D0B0F5407F0DD001240CE099
:1041D0005A482A6D016821F4803111430160DBE700
:1041E000386840F400303860ECB326462868C04395
:1041F000C00207D46A6FD8F8001021F000411143C3
:10420000C8F800102868C043C00008D4D5F8B8200A
:10421000DBF8001021F480411143CBF8001028682E
:10422000C043800207D4EA6ED8F8001021F08071F4
:104230001143C8F800102868C04340000CD4DBF8D4
:10424000001021F40041CBF80010DBF80010D5F885
:10425000BC201143CBF800102868C04308D437486D
:104260006A6D016800E018E021F0405111430160DF
:104270002868C043000208D4D5F88C20DAF8001072
:1042800021F440011143CAF8001028790024C043EA
:1042900000F0010020430AD00FE0D5F88020DAF8C2
:1042A000001021F440711143CAF800109EE70198F4
:1042B000002102F065F900B106462879C04300F0FC
:1042C0000200204305D10198012102F059F900B103
:1042D00006462879C04300F00400204305D1019828
:1042E000022102F04DF900B106462879C04300F0E2
:1042F0000800204305D10098002102F0D1F900B157
:1043000006462879C04300F01000204305D10098EC
:10431000012102F0C5F900B106462879C04300F03A
:104320002000044304D10098022102F0B9F900B939
:1043300016B10120BDE8FE8F0020FBE74C44025877
:104340002DE9F05F04000F467ED0DFF83882D8F800
:10435000000000F00F00B8420CD2D8F8001021F095
:104360000F013943C8F80010D8F8000000F00F0022
:10437000B84269D12078844D40070AD52069296860
:1043800001F07001884204D9296821F070010143CD
:10439000296020787C4E361D00070AD56069316897
:1043A00001F07001884204D9316821F070010143A5
:1043B00031602078C0060AD5A069316801F4E06157
:1043C000884204D9316821F4E061014331602078EA
:1043D000DFF8B4B180060BF1080B0CD5E169584643
:1043E000DBF8002002F07002914204D9026822F04A
:1043F00070020A430260207880070AD5E0682968C5
:1044000001F00F01884204D9296821F00F0101430E
:1044100029602078C0073ED05B49A2682868183917
:1044200020F47060104328606068022818D00328C8
:1044300019D00968012819D0490700294ADADFF89C
:1044400048A1AAF1080A00E044E0DAF8002022F0CE
:1044500007020243CAF80020FEF7D0FB814612E0B3
:1044600009688903E9E709688901E6E7C905E4E71E
:10447000FEF7C4FBA0EB090141F28830814202D96A
:104480000320BDE8F09F6168DAF8000000F0380012
:10449000B0EBC10FECD1207880070AD5E06829681D
:1044A00001F00F01884204D2296821F00F01014375
:1044B0002960D8F80010404601F00F01B9420BD92D
:1044C000016821F00F0139430160006800F00F001E
:1044D000B84201D00120D4E7207840070AD52069EE
:1044E000296801F07001884204D2296821F0700126
:1044F00001432960207800070AD56069316801F01E
:104500007001884204D2316821F0700101433160AA
:104510002078C0060AD5A069316801F4E0618842BC
:1045200004D2316821F4E0610143316020788006D3
:104530000CD5E1695846DBF8002002F07002914288
:1045400004D2026822F070020A43026000F09AF876
:104550000E492A682B68C2F3032203F00F038A5C1A
:10456000C95C02F01F0201F01F01D040084A20FA86
:1045700001F111600749086007480068BDE8F05F75
:10458000FEF778BB002000521844025890E70190D3
:10459000200000241C0000241400002470B5144CDA
:1045A0003F220260124A24680832131D114D04F0A4
:1045B0000704446016681C1D06F470668660166861
:1045C00006F00F06C660126802F0700202611A68F7
:1045D00002F0700242611A6802F4E06282612268AD
:1045E00002F07002C261286800F00F00086070BD20
:1045F000104402580020005230B500F043F80B4A36
:104600000B490C4B15681468C5F3032204F00F0422
:104610008A5C095D02F01F0201F01F01D040064ACA
:1046200020FA01F119601060084630BD18440258A4
:1046300090E70190200000241C00002400B5FFF743
:10464000DBFF05490968054AC1F30211515C01F01D
:104650001F01C84000BD00001C44025890E70190B3
:1046600000B5FFF7C9FF05490968054AC1F30221F2
:10467000515C01F01F01C84000BD00001C440258FD
:1046800090E70190454970B545480968434B103B98
:1046900011F0380208D00111082A03D0102A0BD0DB
:1046A000182A0BD0084670BD19688906FBD5196811
:1046B000C1F3C101C84070BD3A4870BD3749374D9C
:1046C00018310C1D24350A68096826682D6802F027
:1046D000030406F00102C1F30511C5F3CC0515FB77
:1046E00002F200EE102AB8EE400AE9B32F4ADFEDDD
:1046F0002E0AB7EE001A6CB1DFED2D1A012C01D095
:10470000022C43D002EE101A1068F8EE422A81EE15
:10471000A22A1EE01C68A40611D51B6801EE901A9F
:104720001168C3F3C103F8EE612AD84001EE900A84
:10473000C1F30800F8EE611A81EEA22A0BE001EE47
:10474000901ADFED1C2A00BFF8EE611A106882EEA5
:10475000A12AC0F3080001EE900AF8EE611A40EEBB
:10476000201A31EE810A00E015E022EE000A1068FE
:10477000C0F34620401C00EE900AF8EE600A80EE7E
:10478000201ABCEEC10A10EE100A70BD01EE901A9C
:10479000DFED092AD8E7002070BD00001044025860
:1047A0000090D00340787D01000000393044025869
:1047B0000024744A0024744C20BCBE4B2DE9F05FE9
:1047C00004007DD0FF4F2078FE4D1837DFF8F493BA
:1047D000103DC00748D0D9F80000396800F0380013
:1047E000102815D0182803D101F0030002280FD09B
:1047F0006068B0F5803F12D010B1B0F5A02F18D08E
:10480000286820F480302860286820F4802009E09F
:104810002868800328D560680028D2D024E0286862
:1048200040F480302860606888B1FEF7E7F90646FA
:1048300009E0286840F480202860F0E7FEF7DEF900
:10484000801B64286FD828688003F7D50CE0FEF73A
:10485000D5F9064605E000BFFEF7D0F9801B6428B5
:10486000F0D828688003F7D4207841F20308D54EA9
:104870000C3E800769D5D9F80000396810F038007F
:104880000ED0182801D188070AD0E06890B32968B3
:1048900021F0190101432960FEF7B0F9824631E0A9
:1048A0002868400702D5E06800288AD0E1682868B7
:1048B00020F0190008432860FEF7A0F9824607E0BF
:1048C000DFE000BFFEF79AF9A0EB0A000228B9D892
:1048D00028684007F6D500BFFEF78AF940451BD887
:1048E0002069402812D0316821F47C3141EA00303F
:1048F00030602AE018E000BFFEF780F9A0EB0A0064
:1049000002289FD828684007F6D5E5E7306820F4EC
:104910007C3040F40030EBE7207C316821F0FE4130
:1049200041EA0060E4E70DE1286820F0010028601A
:10493000FEF764F9824605E0FEF760F9A0EB0A0095
:1049400002288DD828684007F6D42078C0065DD5A7
:10495000D9F80000DFF86CB2396800F03800ABF12C
:10496000040B082810D0182803D101F003000128F7
:104970000AD0E0690028286838D040F0800028601C
:10498000FEF73CF9824623E02868C00523D5E0699C
:10499000802876D11FE0206A202821D0316821F0BC
:1049A000F84141EA8060306030E000BF94F82010A8
:1049B000DBF8002022F07C5242EA0161CBF80010C3
:1049C00024E000BFFEF71AF9A0EB0A00022898D8ED
:1049D0002868C005F6D5FEF70BF94045E6D8DAE7BA
:1049E000306820F0F84040F08040DCE720F08000A4
:1049F0002860FEF703F9064605E000BFFEF7FEF863
:104A0000801B02289DD82868C005F7D420780007AD
:104A100029D56C486169643000298046016811D04D
:104A200041F001010160FEF7E9F8064605E000BF2C
:104A3000FEF7E4F8801B0228C9D8D8F800008007E8
:104A4000F6D510E021F001010160FEF7D7F8064627
:104A500005E000BFFEF7D2F8801B022872D8D8F814
:104A600000008007F6D42078800623D5A0690028AE
:104A7000286810D040F480502860FEF7BFF8064642
:104A800005E036E1FEF7BAF8801B02285AD82868FC
:104A90008004F7D50EE020F480502860FEF7AEF8D1
:104AA000064604E0FEF7AAF8801B02284AD82868C8
:104AB0008004F7D4207840074FD5DFF80C81D8F870
:104AC000001041F48071C8F80010FEF797F8064610
:104AD00005E000BFFEF792F8801B642832D8D8F8B2
:104AE0000000C005F6D5374EA068603601280AD010
:104AF00008B1052813D0306820F00100306030681C
:104B000020F0040002E0306840F001003060A0684E
:104B100041F2883A90B1FEF771F880460AE03068B9
:104B200040F004003060EEE7FEF768F8A0EB080103
:104B3000514507D830688007F6D50EE0FEF75EF8DD
:104B4000804607E084E000BFFEF758F8A0EB0801BC
:104B500051457DD830688007F6D4606AB0B3DFF87D
:104B60006480D9F8001008F120084FF6F87B08F1AE
:104B70000409C1F3C2010329A8F1040A69D002287B
:104B8000286820F08070286003D0FEF737F80446CC
:104B900084E0FEF733F8064605E000BFFEF72EF886
:104BA000801B022877D828688001F7D4E26A40F297
:104BB000F331386854F8283F884340EA021018431C
:104BC000386004E01044025800480258B5E0217BE8
:104BD000434622894FF4FE0C208A4FF0FE474902DB
:104BE000267D521E401EA1F50071C2F308088AB24C
:104BF000761E0CEA004042EA08020243504607EAE9
:104C000006610A431A60DAF8002022F00102CAF8AD
:104C10000020D9F80020266A22EA0B0242EAC602E6
:104C2000C9F80020DAF80010A26921F00C01114344
:104C3000CAF800100168E26921F002011143016025
:104C4000016841F480310160016841F4003101E004
:104C500021E027E00160016841F4802101600168E2
:104C600041F001010160286840F080702860FDF784
:104C7000C5FF044605E000BFFDF7C0FF001B02288A
:104C800009D828688001F7D557E000BFFDF7B6FFC7
:104C9000001B022802D90320BDE8F09F286880018C
:104CA000F4D44AE039680128D8F8000021D0A26A7B
:104CB00001F0030393421CD1E26AC1F305118A4259
:104CC00017D1216BC0F30802491E8A4211D1616BD2
:104CD000C0F34622491E91420BD1A16BC0F306429C
:104CE000491E914205D1E16BC0F30660491E814225
:104CF00001D00120D0E7A16C4E46D9F80000C0F3E6
:104D0000CC00814219D0DAF80000554620F00100AD
:104D1000CAF80000FDF772FF4FEA0007FDF76EFFCB
:104D2000B842FBD0A26C306820EA0B0040EAC20017
:104D30003060286840F0010028600020ACE70000E7
:104D400070B504000D4603D094F82C0010B107E0B4
:104D5000012070BD002084F82D00204600F018F8D6
:104D6000022084F82C002068211DFCF7CCF9D4E93E
:104D700000022946FCF718FA04480121026842F0B3
:104D80000042026084F82C10002070BD00400052E8
:104D9000FDF788BD10B5044690F82C00022804D019
:104DA00094F82C00012801D0012010BD022084F8C5
:104DB0002C002068FCF7DCF9012084F82C0000208E
:104DC00010BD000070B5044690F82C000D46022876
:104DD00004D0012803D0052801D0012070BD022095
:104DE00084F82C002068FCF7CCF92868022805D04C
:104DF0005FF0010084F82C00002070BD0520F9E769
:104E0000024A136883430B4313607047040400583D
:104E100070477047704700002DE9F04390F83C2040
:104E2000012A42D0012280F83C2051F80C4BDFF8D7
:104E300080804FF0000991E8680051E9022723F4CF
:104E40004073B1F80CC03B43CF6923F48063134334
:104E5000026823F40063234323F4805343EA0503E9
:104E600023F4005343EA060323F4804343EA070391
:104E70000C3923F47023424543EA0C4302D00D4C15
:104E8000A2420CD18D8C23F47006D1E9073446EA96
:104E9000055121F08071194321F0007323435364BD
:104EA00080F83C900020BDE8F0830220FBE7000082
:104EB0000000014000040140F0B590F83C20012AB8
:104EC0003BD01F4E012480F83C40022280F83D2058
:104ED00002681C4D5368B242D2F808C001D0AA4201
:104EE00003D14F6823F470033B430F6823F0700332
:104EF0001F4357600268B24213D0B2F1804F10D006
:104F0000114B9A420DD0114B9A420AD0104B9A4243
:104F100007D0AA4205D00F4B9A4202D00E4B9A42BC
:104F200004D189682CF0800319439160002180F836
:104F30003D4080F83C100846F0BD0220F0BD000066
:104F4000000001400004014000040040000800404F
:104F5000000C0040001800400040014010B5040063
:104F600003D094F83D0010B107E0012010BD0020EF
:104F700084F83C00204600F023F8022084F83D002D
:104F80002068211D01F058FD012084F8480084F8B4
:104F90003E0084F83F0084F8400084F8410084F823
:104FA000420084F8430084F8440084F8450084F803
:104FB000460084F8470084F83D00002010BD000042
:104FC00008B5154A0168154891420ED1016841F0B3
:104FD0000201016000680022052100F0020000903B
:104FE0002C20FEF71DF92C2010E00D4A914211D122
:104FF000016841F48021016000680022052100F46D
:10500000802000907620FEF70BF97620BDE808405E
:10501000FEF7F8B808BD000000040140F044025853
:105020000048014090F83D10012901D0012070474F
:10503000144B0222016880F83D20994214D0B1F14E
:10504000804F11D0104881420ED0104881420BD0C1
:105050000F48814208D00F48814205D00E48814256
:1050600002D00E48814207D188680D4A10400628B8
:1050700006D0B0F5803F03D0086840F0010008601A
:10508000002070470000014000040040000800407C
:10509000000C0040000401400018004000400140A6
:1050A0000700010090F83D10012901D00120704750
:1050B000174A022180F83D100168CB6843F00103D4
:1050C000CB600068904214D0B0F1804F11D01149EC
:1050D00088420ED0104988420BD01049884208D02F
:1050E0000F49884205D00F49884202D00E498842B4
:1050F00007D181680D4A1140062906D0B1F5803FDD
:1051000003D0016841F001010160002070470000F8
:10511000000001400004004000080040000C004076
:105120000004014000180040004001400700010059
:1051300070B5044690F83C000025012814D03A4B85
:10514000012684F83C60022084F83D0022689068C3
:10515000184020F47F409060086870282FD010DC41
:1051600010F00F0F03D022E04FF0020070BD4FEAA5
:105170002012072A1BD2DFE802F0535353534B3956
:105180004100B0F1101F4BD009DCB0F5805F0FD0AB
:10519000B0F5005F1ED0B0F5801F08D140E0A0F54B
:1051A000801120393CD010293AD0202938D001254F
:1051B00084F83D60002084F83C00284670BD4A68B1
:1051C0002068D1E9021301F09FFC2068816841F05A
:1051D000770109E04A682068D1E9021301F094FCE4
:1051E0002068816841F480418160E1E7CA684968CC
:1051F000206801F037FE2068502106E0CA6849683F
:10520000206801F040FE2068602101F087FCCFE7B4
:10521000CA684968206801F025FE20684021F4E74B
:10522000226801461046F0E788FFCEFF70472DE95F
:10523000F041044600680027C6680569A90713D530
:10524000B10711D5FA1E026101212177206880691A
:105250008007204602D0FFF7E9FF04E000F0C2F823
:10526000204600F0F2F82777680716D5700714D5A6
:10527000226802206FF004011161207720688069A4
:1052800010F4407F204602D0FFF7D0FF04E000F08A
:10529000A9F8204600F0D9F82777280715D5300758
:1052A00013D5226804206FF008011161207720686F
:1052B000C0698007204602D0FFF7B8FF04E000F085
:1052C00091F8204600F0C1F82777E80616D5F006D9
:1052D00014D5226808206FF0100111612077206832
:1052E000C06910F4407F204602D0FFF79FFF04E022
:1052F00000F078F8204600F0A8F82777E80708D0F3
:10530000F00706D021686FF001000861204600F028
:105310009DF8280601D4A80408D5300606D52168D2
:105320006FF4025008612046FFF773FDE80508D5C9
:10533000300606D521686FF4807008612046FFF7BB
:1053400067FD680608D5700606D521686FF0400035
:105350000861204600F096F8A8060AD5B00608D5E0
:1053600021686FF0200008612046BDE8F041FFF79A
:1053700051BDBDE8F08170B5044690F83C000025B1
:1053800001280BD0012084F83C000C2A1ED007DC39
:1053900082B1042A12D0082A06D113E0022070BD7F
:1053A000102A17D0142A19D00125002084F83C00B7
:1053B000284670BD206801F0BBFBF6E7206801F0CD
:1053C00009FCF2E7206801F051FCEEE7206801F0EB
:1053D00099FCEAE7206801F0D1FCE6E7206801F0DB
:1053E00007FDE2E7704710B5040003D094F83D00D4
:1053F00010B107E0012010BD002084F83C002046D9
:1054000000F022F8022084F83D002068211D01F000
:1054100013FB012084F8480084F83E0084F83F0024
:1054200084F8400084F8410084F8420084F8430086
:1054300084F8440084F8450084F8460084F8470066
:1054400084F83D00002010BD7047704710B5094931
:1054500004460068884201D1FDF7D6FB0649206862
:10546000884206D1BDE8104004494022044800F0BB
:10547000D7BB10BD0010004000480140002002587A
:1054800034000024704730B590F88410012918D0FA
:10549000012280F884202421C0F8881000222024D2
:1054A00001680B680D6823F0005325F001050D60BD
:1054B000426601680B60C0F8884080F8842010467E
:1054C00030BD022030BD7047704770B5044690F87B
:1054D000840001281DD0012284F884202420C4F8EF
:1054E000880020680568026822F0010202602068D6
:1054F000826822F060620A438260204601F084FEE6
:105500002268202100201560C4F8881084F88400E7
:1055100070BD022070BD70B5044690F8840001286B
:105520001DD0012284F884202420C4F8880020683B
:105530000568026822F0010202602068826822F099
:1055400060420A438260204601F05EFE226820210C
:1055500000201560C4F8881084F8840070BD022013
:1055600070BD7047704770472DE9F041076800250E
:10557000044640F60F030226F8693968BA681842F3
:105580000AD183067ED501F0200302F0805C53EA45
:105590000C0377D0616F74E1CF4BDFF840C3134049
:1055A00001EA0C0C53EA0C0C6CD05FEAC07C0CD006
:1055B0005FEAC15C09D54FF0010CC7F820C0D4F8F0
:1055C000907047F00107C4F89070870709D5D70796
:1055D00007D027683E62D4F8906046F00406C4F80D
:1055E000906046070AD5D60708D0276804263E6291
:1055F000D4F8906046F00206C4F8906006070CD517
:1056000001F020061E4308D0266808233362D4F830
:10561000903043F00803C4F8903003050BD54B01DC
:1056200009D526684FF400633362D4F8903043F014
:105630002003C4F89030D4F89030002B3DD0800681
:1056400009D501F0200002F08051084303D0616FBA
:1056500009B1204688472168D4F890008968490636
:1056600002D410F0280F2AD0204601F0B3FE2068A3
:10567000806840061ED52068083050E8001F21F0E1
:10568000400100E021E040E80012002AF3D1D4F804
:10569000800078B192490165D4F88000FCF7C0FF22
:1056A00000280AD0D4F88000016D00E02046BDE853
:1056B000F04108472046FFF756FFBDE8F08120463D
:1056C000FFF751FFC4F89050F7E7D4F86CC02023DF
:1056D000BCF1010F7ED15FEAC06C7BD55FEAC16C83
:1056E00078D51020386220688068400673D5D4F8D9
:1056F00080107C4A0868904234D07A4A183290422E
:1057000030D0784A303290422CD0764A483290429B
:1057100028D0744A6032904224D0724A7832904243
:1057200020D0704A903290421CD06E4AA8329042EB
:1057300018D06D4A904215D06B4A1832904211D061
:10574000694A303290420DD0674A4832904209D0BF
:10575000654A6032904205D0634A7832904201D067
:10576000614A903240680004000CA6D0B4F85C2076
:105770008242A2D9A4F85E00C869B0F5807F2FD01C
:10578000216851E8000F20F4807041E80002002AEF
:10579000F6D12068083050E8001F21F0010140E8F0
:1057A0000012002AF5D12068083050E8001F21F0CF
:1057B000400140E80012002AF5D1C4F88C30E566BB
:1057C000216851E8000F20F0100041E80002002A93
:1057D000F6D101E040E00BE0D4F88000FCF770FD6A
:1057E0002667B4F85C00B4F85E10401A81B22FE06E
:1057F000B4F85C00B4F85E10B4F85E20401A81B2D0
:10580000002AB2D00029B0D0226852E8000F20F45C
:10581000907042E80007002FF6D1344F206800F165
:10582000080050E8002F02EA070240E8002CBCF113
:10583000000FF3D1C4F88C30E5666567206850E846
:10584000002F22F0100240E80023002BF6D126673B
:105850002046FFF738FE30E7C60209D5560207D5C5
:105860004FF4801038622046BDE8F041FFF77ABE61
:1058700006060AD501F0800602F40002164304D0A1
:10588000A16F00297FF412AF17E7420611D54A062F
:105890000FD52046026852E8001F21F0400142E87F
:1058A0000014002CF6D1C0F88830856700F0B6F9F6
:1058B00003E7020206D54A0004D52046BDE8F041C0
:1058C000FFF74FBEC001C6D50029C4DA2046BDE8A7
:1058D000F041FFF7F9BD00000100001020010004B5
:1058E000BF7300901000024010040240FEFFFFEF63
:1058F00010B5040003D0D4F8880010B107E00120EF
:1059000010BD002084F88400204600F027F82420F1
:10591000C4F888002068016821F001010160A06AD4
:1059200010B1204601F092FC204601F0EFFF012863
:10593000E6D02068416821F4904141602068816888
:1059400021F02A0181602068016841F001010160B5
:105950002046BDE8104001F0DDBC00002DE9F0411B
:10596000B6B00446142130A8FAF7E7FFC021684614
:10597000FAF7E3FF4E4D02274E492068083D4C4E92
:10598000002488422CD100201E940221CDE9001071
:105990006846FDF7FFFF08B1FBF7B3FB306840F046
:1059A00080403060306800F080403590286840F0DA
:1059B0000200286028680B2100F0020035901820B2
:1059C0003090CDE93174CDE933413B4830A9FCF743
:1059D000E7FF002205215220FDF722FC522032E091
:1059E00036494FF00708884232D100201F94012128
:1059F000CDE900106846FDF7CDFF08B1FBF781FB4C
:105A00002B480830016841F010010160006800F087
:105A100010003590286840F00100286028684FF495
:105A2000C061309130A900F00100CDE931743394A8
:105A3000CDE934802248FCF7B3FF00220521252060
:105A4000FDF7EEFB2520FDF7DDFB36B0BDE8F0816C
:105A50001C498842F9D100201E940221CDE9001092
:105A60006846FDF797FF08B1FBF74BFB306840F441
:105A700000303060306800F400303590286840F025
:105A80000800286028686021309130A900F00800E3
:105A9000CDE931743394CDE934800B48FCF780FFB5
:105AA000002205212620FDF7BBFB2620CBE70000C6
:105AB000E8440258007800400004025800100140F9
:105AC0000000025800440040000C025830B4D0F8E6
:105AD0008C30202B02D0022030BC7047A9B1A2B17B
